:10200000008000202D380000153800001538000031
:1020100000000000000000000000000000000000C0
:102020000000000000000000000000001538000063
:10203000000000000000000015380000813800009A
:10204000153800001538000015380000153800005C
:102050001538000015380000153800001938000048
:1020600015380000953000001538000015380000C4
:102070001538000015380000A530000015380000A4
:10208000153800001538000015380000153800001C
:102090000000000015380000153800001538000059
:1020A00015380000153800001538000015380000FC
:1020B0000000000010B5064C2378002B07D1054B1B
:1020C000002B02D0044800E000BF0123237010BDA4
:1020D000D000002000000000B4740000044B10B5D4
:1020E000002B03D00349044800E000BF10BDC046E8
:1020F00000000000D4000020B474000010B5064AAF
:10210000002303F08FFC054C206001F0C7FB23681F
:102110001818034B186010BD40420F00F00000205B
:10212000F4000020F8B500250723EC10E4002B4054
:102130001F4FE418A400E659002E04D1012004F03A
:10214000F1FCE05106700135382DEDD10023194E18
:10215000194C70689A0012191168002902D15900AF
:10216000411811600133202BF4D100250723EC1016
:102170002B40E400E418114BA400E758002F05D1D0
:10218000012004F0CFFC0D4B0770E0500135382DD5
:10219000ECD1002370690A4C9A00121911680029C9
:1021A00002D15900411811600133202BF4D1F8BD40
:1021B000DC0E002048010020700D0020F00D0020F2
:1021C000F00C002010B500F0C5FE00F063FC00F03C
:1021D00045FF0122E121524249020A4800F02AF952
:1021E0000022094B1A70382320321900100000F029
:1021F000B3F8FFF797FF054B18685968FFF77EFFA4
:1022000010BDC0466C0100204801002000000020E5
:10221000F8B5002407252200E310DB002A40334FE5
:102220009B189B00DB59002B07D01A78A0B2531ED5
:102230009A410021D2B200F0E3F80134382CEAD1FF
:1022400000232B4E71682B489A008258002A02D036
:1022500010885A0088520133202BF4D1002407251E
:102260002200E3102A40DB009B18234A9B009B5866
:10227000002B07D01A78A0B2531E9A410121D2B286
:1022800000F0BEF80134382CEAD1002371691B48F4
:102290009A008258002A02D014885A008C520133C6
:1022A000202BF5D100F0F2FB00250723EC102B408A
:1022B000E400E418A4003B59002B05D0A8B200218B
:1022C00000F08CF83B5918700135382DEDD1002302
:1022D000716808489A008258002A02D05800085AAB
:1022E00010800133202BF4D1F8BDC046DC0E002055
:1022F00048010020700D0020F00D0020F00C00209F
:1023000010B5FFF785FF01F0C9FA074B1C68A04222
:1023100005D201F0C3FA201A6328F4D9F1E7034A81
:1023200010680019186010BDF4000020F0000020B3
:1023300010B500F041FEFFF76BFF064B1868421C1A
:102340001A6000F0ABFB00F061FE00F089FEFFF7C1
:10235000D7FF10BDEC000020F7B517006A460190CA
:102360001D4C127921742272621C2776D377CE0815
:102370004A0700D00136DD085B0700D00135300088
:1023800004F0D0FBE060002801D10020FEBD320047
:10239000002104F0E4FB019B580004F0C3FB6060E3
:1023A0000028F2D0019A002104F0D9FB280004F0A3
:1023B000B9FBE0610028E8D02A00002104F0CFFB3F
:1023C000780004F0AFFB60610028DED03A00002105
:1023D00004F0C5FB0120D9E7480100200723C2080B
:1023E0000340D2B20548002905D1C168885C184174
:1023F000012318407047C169F8E7C0464801002032
:10240000072310B5C4081840063B8340E4B2DBB292
:102410000748002907D1C06800190178002A04D0B4
:102420000B43037010BDC069F6E799430170F9E7EB
:1024300048010020164B70B51860164B14001A7036
:1024400003680D00DB699847002C08DBE4B201212A
:10245000200001F069FD0021200001F0B1FD96236C
:102460000D4CDB019D420DDD0C4B2380208804F0D8
:10247000D1FA00220A4B03F0DDFC03F0F3FA094B1A
:10248000188070BD2900084803F0A2F92080EDE70C
:102490003C0100204401002040010020EE02000029
:1024A00000000C404201002020C5FB000322054B28
:1024B00080381A80044A054B127858701A70997047
:1024C0007047C0463801002048010020F800002075
:1024D000F8B54B1E7C2B04D903210800FFF7E6FF5B
:1024E000F8BD164C4318227A934202DD02210320E4
:1024F000F4E74B000333124A9BB213800125402BB3
:1025000006D800260F4AAB4204DD56550135FAE7DE
:102510000421ECE7033B937063680325400018181F
:102520000023094F5570013989B2B942D8D0C55A34
:10253000D4182E12E67025710233F4E7480100200A
:1025400038010020F8000020FFFF000010B5064B06
:102550001A7A824204DC02210620FFF7A7FF10BD91
:102560005B684000C152FAE748010020F8B54B1EF5
:102570007A2B02D84B009A4204D003211020FFF797
:1025800095FFF8BD114C0B18227A934201DD022110
:10259000F4E706220E4B64681A8010230D4A0E4E93
:1025A0005370031293700023D07040001371517167
:1025B0002018013989B2B142E3D0D718FD793C7AAD
:1025C0002D022C43C4520233F3E7C04648010020D9
:1025D00038010020F8000020FFFF0000F7B54B1E77
:1025E000264A9BB20C0000900321934206D8244A4D
:1025F000009B127C1B19934204DD02210120FFF78E
:1026000055FFF7BDE3081F4A61070CD10333138060
:1026100013880120402B08D800211B4A834206DD85
:1026200011540130FAE70433F1E70421E7E700260B
:1026300001213500033B144F517093700191009BB1
:1026400000219819FF231840FFF7C8FE0199F210E6
:10265000A940013C0332A4B2C9B2BB5C00280AD035
:102660000B430135EDB2BB54082D00D100250136D6
:10267000002CE4D1C5E78B43F3E7C046CF07000049
:102680004801002038010020F8000020F7B54B1E5B
:10269000264A9BB20C000190032193421FD8244A82
:1026A000019B0132D27F1B19934204DD02210800F5
:1026B000FFF7FCFEF7BDE3081E4A61070CD10333A8
:1026C000138013880122402B08D800201A49934216
:1026D00007DD88540132FAE70433F1E704210220D0
:1026E000E6E7002602223500033B134F4A708B7049
:1026F000019B0121981980B2FFF770FE0121A940CA
:10270000F210013C0332A4B2C9B2BB5C00280AD06B
:102710000B430135EDB2BB54082D00D10025013625
:10272000002CE5D1C6E78B43F3E7C046CF07000096
:102730004801002038010020F8000020F8B54B1EA9
:102740007C2B04D903210420FFF7B0FEF8BD164C02
:102750004318227E934201DD0221F4E74B0003334C
:10276000124A9BB213800125402B06D80026104A3E
:10277000AB4205DD56550135FAE704210800E3E7D1
:10278000033B937063690425400018180023094F28
:102790005570013989B2B942D8D0C55AD4182E1211
:1027A000E67025710233F4E748010020380100206B
:1027B000F8000020FFFF0000FF2310B51B02994224
:1027C00006D0002904D003210520FFF76FFE10BDBD
:1027D000074B1B7C834201DC0221F5E7054BC9183E
:1027E0004A424A410021D2B2FFF70AFEEFE7C04653
:1027F000480100200001FFFFF7B50C00CB08019055
:10280000DBB2610701D00133DBB2611E1D4889B222
:10281000814201D8934204D003210F20FFF746FEE6
:10282000F7BD194A019B127CE318934201DD022196
:10283000F3E70622154B00271A800F23144E3D00A4
:102840007370019B74711B12B3706B461B79F3702C
:1028500023123371FB10F318DA7901232A411A404D
:10286000019B0135D819013C80B20021EDB2A4B220
:10287000FFF7C6FD082D00D100250137002CE9D156
:10288000CEE7C046AF070000480100203801002015
:10289000F800002010B51F4A9378D1781B020B4333
:1028A00011795079547809020143601E0F282BD802
:1028B00002F0FAFE15190C1D21082A2A2A2A2A2AB2
:1028C0002A2A25101800FFF741FE10BD1800FFF757
:1028D000FFFDFAE792791800FFF748FEF5E71800C8
:1028E000FFF77CFEF1E71800FFF7D0FEEDE71800D8
:1028F000FFF724FFE9E71800FFF75EFFE5E79279AD
:102900001800FFF779FFE0E7A0B20121FFF7CEFD45
:10291000DBE7C046F8000020F0B50D4C0D4E2278E4
:102920000121D243D2B2B35C0B4DDB43A85C0B4A0E
:10293000DBB21788023F8F4206DD625C01315A40EC
:10294000B35C4340A85CF6E71B021843F0BDC046E9
:10295000F80000202C6D00002C6E000038010020D3
:102960000023F7B5424C434D20682B8003681B6958
:102970009847002821D0206803681B6998472B8856
:10298000984209DD206803681B6998473A4B288004
:10299000188800F0DDFFEEE7206803681B699847A0
:1029A000402806DC2068002703681B699847052833
:1029B00004DC20680368DB689847F7BD2B882F4E3E
:1029C0000193BB4207D9206803685B699847F055BB
:1029D0000137BFB2F2E7FFF79FFF019BF3189A1E82
:1029E0001278013B1B78120213438342E1D1244B3E
:1029F00032781B789A42DCD1019B023B2B80FFF797
:102A000049FF2B883E2B03D970780421FFF74EFD38
:102A10002F880237BFB22F80FFF77EFFF719BB1E4A
:102A20000212013F1A7038700020164F38560028E5
:102A300007DBC0B2012101F0C3FA134B188800F084
:102A400087FF20682A88036831005B689847206800
:102A50000368DB6898470C4B188800F079FF00206A
:102A600038560028A9DBC0B2002101F0A9FAA4E77A
:102A70003C0100203801002040010020F800002027
:102A800048010020440100204201002010B5FFF75A
:102A900067FF10BD10B500F045FA10BD10B500F08D
:102AA0004DFA10BD43680E4902688B4203DB002AD1
:102AB00006DD002B04DA013A02600A4A9B184360E3
:102AC0004368084902688B4203DC002A06DA002BBF
:102AD00004DD01320260024A9B1843607047C04621
:102AE000003665C400CA9A3B08B483B007AB0498AB
:102AF00001930699039A059B401A9A4200D0D01A76
:102B0000431E1843C00F431E984103B001B07047E5
:102B10000023012230B54C1EA141012403708256CE
:102B200089000A434270427904710A434271C279B2
:102B300084710A43C271427A03720A434272027D6F
:102B4000C3600A430275427E03610A430376C36190
:102B500003624276451DEA7F0A43EA770200283283
:102B6000137024352A780A432A7002002A3213701F
:102B7000AA780A43AA70C3620363EA7A0A43EA7234
:102B80008363C363EA7D0A43EA750200443214702A
:102B90009470D47855780C43D47054790D430C4319
:102BA000557013715471C3640365147C13750C4321
:102BB0001474547D0C4354750400C3650366453496
:102BC000E27F05340A43A27602004932D377E27FDE
:102BD00002340A43627702004B32D377E27F0A4322
:102BE000E277C3662834036722780A43227083673A
:102BF000C367803003781943017030BD0223F0B5FC
:102C000042798DB004001A4201D101220271627A28
:102C10001A4203D123785A42534123720222237D60
:102C2000134002D1E360BC4B23610222E3791340DD
:102C30002279002A31D1002B00D1A3712300250075
:102C4000453304931B7844359B0701D4A3792B703B
:102C50002600493633789B0703D42300227E48336D
:102C60001A702300022254331B78134002D1E3640C
:102C7000A94B23650222EB7813402A78002A00D062
:102C8000A7E0002B00D1AB7063789B0703D423002F
:102C900058331B7823700DB0F0BD002B01D10133E8
:102CA000A371230034331B789B0704D423009B4A71
:102CB0002C3303CA03C39A4AA16A237A022511421C
:102CC0001BD1002B1BD0230029331B782B4203D1AF
:102CD0002300012228331A700223627E1A4000D199
:102CE00022762200403212781A421BD123002200A1
:102CF00038332C3203CA03C314E0002B1DD1631DEB
:102D0000DB7F1D4001D1E56125620222617E114019
:102D100000D12176230029331B78134002D12200F1
:102D20002832137023002B331B789B0700D585E7CF
:102D30002300227A2A331A7080E7260000272836DB
:102D4000F757012FEED1A26BE3680AA89B180A93EC
:102D5000E26B23699B180B93FFF7A4FE0AA90822D4
:102D600006A803F0F3FE230001AA2C3303CB03C211
:102D7000079B2A0000930021069B3800FFF7B4FE52
:102D8000631D002812D02200293212782A4200D175
:102D90003570627E920701D401222276DB7F9B0789
:102DA000C0D4230022001C330C32A3E7DB7F2B426C
:102DB000B8D1A26BE36A0AA89B1A0A93E26B236B51
:102DC0009B1A0B93FFF76EFE0A9BE3610B9B23623A
:102DD000A8E7002B01D10133AB70230074331B78BB
:102DE0009B0704D423004D4A6C3303CA03C31F233B
:102DF000F35605932F79002B1AD123004B33DB7F39
:102E0000002B00D184E0002F14D123004A33DB7F54
:102E10009B0701D40123F377230080331B789B07A2
:102E200016D42300220078336C3203CA03C30FE0A8
:102E3000002F27D00222049BDB7F134001D1E365E2
:102E40002366230002224A33DB7F134000D1F3774D
:102E50006B7D9B070BD42A790123002A06D123001E
:102E60004933DB7F5BB2013B5A4253412B75230050
:102E70004C33DB7F9B0700D506E723002A794B33D1
:102E8000DA7701E7059B012BE2D1A26FE36C0AA878
:102E90009B180A93E26F236D9B180B93FFF702FEBA
:102EA0000AA9082208A803F051FE230001AA6C33E6
:102EB00003CB03C2099B022200933900089B0598AB
:102EC000FFF712FE022300280ED022004A32D27FE2
:102ED0001A4200D1F377049BDB7F9B07B8D4230011
:102EE00022005C334C32A0E7049AD27F1A42AFD161
:102EF000A26FE36E0AA89B1A0A93E26F236F9B1AD4
:102F00000B93FFF7CFFD0A9BE3650B9B23669FE7BF
:102F1000002F9DD08EE7C0460065CD1DD00E00204D
:102F2000FF00FF00002110B5024B03481970FFF7A6
:102F3000EFFD10BDEC0C0020680C0020012210B544
:102F4000024B03481A70FFF759FE10BDEC0C00202D
:102F5000680C002010B50024134B0021E05C013404
:102F600000F0E2FF052CF7D10024104B0021E05CBB
:102F7000013400F0D9FF062CF7D100240C4B0121BD
:102F8000E05C013400F0D0FF042CF7D1094C0121A2
:102F9000207800F0C9FF6078012100F0C5FFA0781B
:102FA000012100F0C1FF10BD110000200800002029
:102FB000160000200E00002070B500240F4AA30068
:102FC000D558002D04D00E4BE05C01F025F8287098
:102FD0000134052CF2D100240A4BA500ED182B6812
:102FE000002B06D0084BE05C00F046FE2B68800109
:102FF00018800134062CEFD170BDC046F00D0020C2
:1030000011000020F00C00200800002010B5002462
:103010000E4AA300D358002B04D019780C4BE05C67
:1030200000F0CEFF0134042CF2D10024094AA300A1
:10303000D358002B05D01988074B090AE05C00F033
:1030400089FE0134032CF1D110BDC046DC0E0020F6
:1030500016000020700D00200E00002070470000B8
:10306000084A094B51681B685B1808498B4201DC10
:103070005360704706495B1853601368013313604F
:10308000F7E7C046D00E002000000020FFC99A3BA1
:10309000003665C410B5024800F0EDFA10BDC04618
:1030A000B003002010B5024800F0E5FA10BDC0469C
:1030B0006C010020F7B501240326154F154938008F
:1030C00000F042F81449154800F03EF8144915483C
:1030D00000F03AF81449154800F036F8144915483C
:1030E00000F032F8144D1549280000F02DF8390091
:1030F0000096230001940022114800F035FA009652
:10310000290001941E231F220E4800F02DFAF7BD5E
:10311000F405002000080042000C0042FC050020DD
:103120000010004204060020001400420C0600209B
:1031300000180042140600201C060020001C00425B
:10314000B00300206C010020002303710160704770
:103150009446F0B59E1E721E96416246056892071F
:103160002F6836063A4332432A60072505AC247897
:103170000068A4012940214342680024022B00D0AA
:103180005C03114321434160F0BD30B5C0250368A5
:10319000AD031C6812052A402243C0240904A4027E
:1031A00021401143196003685A6814435C6030BDC4
:1031B0000123026811680B43136003681A68D20781
:1031C000FCD4DA69D207F9D4704702230268116887
:1031D0000B4313600268D3699B07FCD470470268F5
:1031E000137E9B0702D40379002BF9D100230371CE
:1031F0007047002203685A8370470368187E4007AF
:10320000C00F70470368187EC009704780230268AA
:103210005B42117E0B43137670470368588B80071F
:10322000C00F704702230268518B0B4353837047D2
:103230000368187EC007C00F70470368188DC0B2BE
:10324000704703681A7ED207FCD589B2198501231D
:10325000037118007047012203689A7570470122B4
:1032600003681A75704700000368214A30B593421D
:103270002FD0204A93422FD01F4A93422FD01F4A6B
:1032800093422FD01E4A93422FD01E4A93421FD101
:103290000E2319220121032599401B48C0240160F7
:1032A00099082B40AB40FC359D4089000918A400CB
:1032B0000859A843C0259D402B0003430B51802390
:1032C000DB011A43114B5A805A7852B2002AFBDBB9
:1032D00030BD09231422DDE70A231522DAE70B2388
:1032E0001622D7E70C231722D4E70D231822D1E7A3
:1032F00000080042000C004200100042001400428E
:1033000000180042001C004200E100E0000C0040F8
:10331000F8B504000F0016001D00FFF7A5FF200000
:10332000FFF746FF1C21BB000B4071072268090C08
:103330000B431360842322689375012F1AD1102147
:10334000012E00D008390C4B69431868C00002F008
:10335000B5F90722216802408B895203DB04DB0C9C
:1033600013438B81226803049089DB0C400B4003DC
:1033700018439081F8BDC0463400002001207047FA
:1033800010B50368014A1B6A984710BD130400007A
:10339000FC30006A704787239B00C018C3688020F8
:1033A0004000C01A70470300FC331A6A002A03D099
:1033B000DB69C018007D704701204042FBE710B573
:1033C00004000069FFF7F4FE22000023FC32936141
:1033D000D361136287229200A4186360A360E36044
:1033E00010BD872310B59B00C218D368002BFCD1F9
:1033F0000069FFF7F4FE10BD0368002B02D162B62E
:10340000BFF36F8F7047F020014030394842484188
:103410007047F0231B011940802306209B0099422E
:103420000AD00133FF330130994205D0802302389E
:103430005B00994200D0002070470F20014000201F
:10344000012903D00239481E8141481C7047000001
:103450008B23F0B5182685B002919B000400C05C58
:10346000330008214343324D1700EB18595600F042
:10347000EBFD304B0821E05C33004343EB18595619
:1034800000F0E2FD2C4BE25C0393022A09D11133D8
:10349000E05CFF2805D008214643AE19715600F0C4
:1034A000D3FD8C26B600A05DFF2819D0012100F0C5
:1034B0003BFD1822A35D21495A43AB56AD18DB01F1
:1034C00058188D21890060501D4901225B188E21FA
:1034D0008900635069688A408F21890062501A60B0
:1034E0000122029B11002069FFF712FF3900200022
:1034F000FFF78FFF390005002000FFF79EFF39001E
:1035000006002000FFF77FFF3300009029002069AC
:103510000122FFF71DFE0B4B2069E25C039BE15C7F
:10352000FFF733FE2069FFF750FE05B0F0BDC0463F
:103530002C6F00002D0200002F02000018440041F3
:10354000144400412E020000802210B504005200F5
:10355000002103F004FB23000022FC335A6020000A
:103560009A60DA6010BD0000F7B51D0008AB1B784B
:103570000400009309AB1B781600019300234360FD
:10358000FA239B008360114B0F0008330360143053
:10359000FFF7DAFF20002130FF30FFF7D5FF8B2344
:1035A0006A469B002761E654094B1278E554094BA3
:1035B0002000E2546A46084B1279E2548C22313BD7
:1035C000FF3B9200A3541032A354FEBD7C73000055
:1035D0002D0200002E0200002F020000F7B5EFF3CD
:1035E000108300930123019372B680260200FF2509
:1035F000019BFC327600013B5C1C0FD0D4685F1E3F
:10360000B44209D054680155546801342C405460C8
:10361000D4680134D460EEE73B00EDE768460193DF
:10362000FFF7EAFEF7BD13B5EFF310830093012314
:10363000019372B6019B5A1E0192002B15D0030014
:10364000FC33DA68002A0DD09A68845C9A680132EB
:10365000D2B29A60DA68013ADA606846FFF7CCFEC7
:10366000200016BD01246442F7E701246846FFF7F5
:10367000C3FE6442F4E710B504000069FFF7CDFD16
:10368000002805D02069FFF7D8FD2069FFF7CAFDA3
:103690002069FFF7B2FD00281BD02069FFF7CDFDA0
:1036A000010020001430FFF799FF8C239B00E35C9E
:1036B000FF2B0ED02300FC331A6A80235B009B1A79
:1036C000092B06DC8D238F229B009200E358A25821
:1036D0001A602069FFF7ACFD00280ED087239B00FD
:1036E000E318DB68002B14D020002130FF30FFF7F7
:1036F0009AFFC1B22069FFF7A4FD2069FFF782FDA0
:10370000002805D02069FFF781FD2069FFF771FDD2
:1037100010BD2069FFF7A3FDEFE70000F8B5040036
:1037200000690D00FFF784FD87239B00E618002841
:1037300002D0F368002B34D001278022F3685200B6
:10374000934223D1EFF310833B4210D1174B5B68B8
:10375000DB05DB0DF1D0103B5BB2002B10DAF13A48
:103760001340083B9B08124A9B009B181B6820696A
:10377000FFF75EFD0028E0D02000FFF77CFFDCE7CC
:103780009B08C0330B4A9B009B58F0E72000213078
:10379000FF302900FFF722FF2069FFF75CFD0120C1
:1037A000F8BD29002069FFF74CFDF8E700ED00E0C7
:1037B0001CED00E000E100E010B504001430FFF75C
:1037C00032FF8C239B00E35CFF2B0ED02300FC33E5
:1037D0001A6A80235B009B1A0A2B06DD8E238F2238
:1037E0009B009200E358A2581A6010BDF7B506007E
:1037F0000D000C008B180193019B671B9C4207D0A6
:10380000336821781B683000984701340028F3D1D1
:103810003800FEBDFEE70000034B10B51B68002B0F
:1038200000D0984710BDC0462406002070B50F494F
:103830000F4CA14204D100F0BBF800F099F8FEE76C
:103840000C4D00238D42F6D0CA18E818A24205D3C9
:10385000094B8242EFD00949002204E0006804339A
:103860001060F1E704C38B42FCD3E4E700000020C2
:10387000D0000020C0740000D0000020C00F002045
:1038800010B500F071F8002801D100F057F810BD14
:10389000014B18607047C04624060020014B186891
:1038A0007047C04628060020F7B513480122844619
:1038B0001249134C8E68636805689B0E1340019291
:1038C00088686268019F920E3A4067463F6893425B
:1038D0000ED1BD420CD186420AD35B19FA25486845
:1038E000AD00861B07486B437043000DC018FEBD3A
:1038F0003D0013000600E3E72806002010E000E08A
:1039000000ED00E05555000070B5041E10D0FFF723
:10391000CBFF050000F027F8FFF7C6FF054B401B63
:103920009842F7D9FA23013C9B00ED18002CF3D103
:1039300070BDC046E70300007047000010B5034AA1
:1039400013680133136000F0F1FB10BD280600205E
:1039500010B5002806D030230321584301F0AEFEF5
:103960000138FDD110BD704700207047704700003E
:1039700010B500F0CDF803F0B1F8FFF7F7FF012024
:10398000FFF7C2FF084C200001F04CFB200000F0C4
:1039900051FDFEF717FCFEF7CBFC044B002BFAD0D1
:1039A00000E000BFF7E7C0465C0600200000000012
:1039B0001E2270B546484749436893431C3A134357
:1039C000436008238C6923438B61434C434B9C82A7
:1039D0009C8A14439C82DC681442FCD00124404A37
:1039E00014701578254203D055786DB2002DF8DBA0
:1039F00001249460547864B2002CFBDB394C546091
:103A0000547864B2002CFBDB8224E40154805478A7
:103A100064B2002CFBDB02249C840E34DD6825425A
:103A2000FCD0314CDC621024DD682542FCD09D8C3A
:103A30002E4C2C439C841024DD682542FCD00224AB
:103A40009D8C80262C439C844024DD683542FCD02C
:103A5000DD682542F9D01024DD682542FCD0002421
:103A60009460547864B2002CFBDB214C5460547891
:103A700064B2002CFBDB1C6A1E4D2C4080251C62AE
:103A80001C6AAC431C62032393601B4B5360537846
:103A90005BB2002BFBDB0023FF240B72174A4B7237
:103AA0008B72CB72164B1A60164B174A1B68116843
:103AB0009A065B01C90E2340520F12020B431343B7
:103AC000124A1385802342681343436070BDC04689
:103AD00000400041000400400C06000000080040C7
:103AE000000C004001050100B905FF7D040A00003B
:103AF00000070300FFFCFFFF03060100006CDC026F
:103B000034000020246080002060800000400042DB
:103B1000FA21314B10B51868890001F0CFFD2F4B09
:103B20000138984256D82E492E4A4860C020136A60
:103B300000061B021B0A03431362002407238C6048
:103B40000B608021136A09061B021B0A0B431362D8
:103B5000FC22254B196A0A431A62FC22196A920157
:103B60000A431A62A022196AD2020A431A62E0B218
:103B70000021013400F0D8F9142CF8D11B4B1C00A3
:103B80005A7852B2002AFBDB194A5A80194B1A00A4
:103B9000597EC9090129FBD0E421C90099803F2140
:103BA000D970537EDB09012BFBD0C02300205B01C1
:103BB0001361907000F02EF863785BB2002BFBDB92
:103BC0000D4B0E4A6380D379DB09012BFBD04123D7
:103BD000537010BDFEE7C04634000020FFFFFF0019
:103BE00010E000E000ED00E000040040000C0040A8
:103BF0001E400000004000422140000000480042FA
:103C0000914202D002D98A1AD0407047521A90408D
:103C1000FBE70000164A00B51300517EC9090129CF
:103C2000FBD00138042816D81969124A0A400F211E
:103C30001A615A788A4301F037FD0308060B030026
:103C4000110001220A435A7000BD11000322F9E756
:103C500011000222F6E7F02311691B050B430F2127
:103C6000136153788B43190002230B435370EBE726
:103C700000400042FFFFFFF010B504000D2801D8FE
:103C80000E34E4B20121200000F0DEF918231021E7
:103C900063432B4CE4186156002901D014290DD13F
:103CA000284B1800DA79D209012AFBD002241A78AD
:103CB000A2431A70C379DB09012BFBD02248030011
:103CC000427ED209012AFBD01F2402692140A2436F
:103CD0000A4302615A7ED209012AFBD002221978D6
:103CE0000A431A705A7ED209012AFBD00222197B9C
:103CF0000A431A731A7ED207FCD501221A765A7E1D
:103D0000D209012AFBD00222197B0A431A731A7EB8
:103D1000D207FCD5588B80B25A7ED209012AFBD03B
:103D200002211A788A431A705A7ED209012AFBD0DE
:103D3000064B1A68064B1968FFF762FF10BDC046B4
:103D40002C6F000000480042004000423C00002070
:103D50003800002018234343F0B56A4A87B09B1807
:103D6000DA6806000C000092920722D51B7C5BB239
:103D7000002B01D0142B1AD1634B0A2219682000A2
:103D8000FFF73EFF614A1300D179C9090129FBD031
:103D90008005800D1081DA79D209012AFBD0022238
:103DA00019780A431A70DA79D209012AFBD007B0D0
:103DB000F0BD0827009A544D3A40019200D191E09D
:103DC00012229B5E2968200010220193FFF718FF42
:103DD000019B05001F126B461C79009B0421DB062A
:103DE00000D40521300000F02FF9494BBA00D65815
:103DF000484BDA5D002A54D10132DA5546490F3278
:103E000002A802F0A3FE02AA7B009B5A8022D201E4
:103E10001A43424B5A805A78D209012AFBD0022217
:103E200097421BD9338893433380F37BDB09FCD162
:103E30003288403313433380F37BDB09FCD10C34ED
:103E4000ADB26400A553F37BDB09FCD132880233A9
:103E500013433380F37BDB09FCD1A8E7336893433A
:103E60002F4A33601300B1681142FCD10222F16B7A
:103E70000A43F263B2681A42FCD11034A400341928
:103E80006560B2681A42FCD1264A3264B2681A42AE
:103E9000FCD1022231680A433260B2681A42FCD176
:103EA00085E7022F07D90C34ADB26400A553F37B2C
:103EB000DB09FCD17BE70223727913437371184B42
:103EC0001A00B1681942FCD11C34A400A551B36892
:103ED0001342FCD1022331790B433371B36813428F
:103EE000FCD164E7012100F01FF829683A002000A6
:103EF000FFF786FE01997F2800DD0121300000F0E8
:103F00005FF854E72C6F000040000020004800429A
:103F10001C0000202C060020B0730000000C0040A4
:103F2000FF0F7F00FFFF0000182330B51D000400C5
:103F300045430820204A55192856013014D003293A
:103F400012D808006343D156D31801F0ADFB022804
:103F50000E1B5868CB010221184A9B181A184032D0
:103F60001170012282405A6030BD5868CB01062191
:103F7000124A9B181A1840321170012282405A606E
:103F80009A61F1E75868CB0106210C4A9B181A1870
:103F900040321170012282405A605A61E4E7586849
:103FA000CB010221054A9B181A18403211700122D8
:103FB00082409A60D8E7C0462C6F00000044004160
:103FC0001823F0B508245843114A13181C5701341C
:103FD0001BD0012635005F688356BD400D4ADB01CA
:103FE0009A18906805420BD10C00601E8441D219CA
:103FF0004032107834400336A400B04320431070A0
:10400000044A9B18002901D15D61F0BD9D61FCE768
:104010002C6F000000440041182310B508244343CE
:1040200007490020CA181457013408D05B560549C7
:10403000DB015B18186A5368D8400123184010BD93
:104040002C6F00000044004118224243F8B52C4E6A
:104050000300B218127A52B2140001320ED0481C7A
:1040600000240C280AD801F01FFB07202020202064
:104070002020200B0B0B0B00012464422000F8BD14
:10408000092905D10021D8B2FFF74EFF0024F5E73A
:104090000A2902D1D8B20839F6E700240B29EDD15C
:1040A000D8B20A39FFF740FFE8E718204343F21877
:1040B0005568F3562C00134ADB016E0817389B181D
:1040C000C9B204409E19002C0DD00F24303632782E
:1040D000090122401143C9B25B19317040331A788B
:1040E00010431870D2E732000F27303216785B1970
:1040F000BE433143117040331A7810431870BDE746
:104100002C6F00000044004110B50400FFF714FCC0
:10411000014B1C6010BDC046440000200122024B30
:1041200052421A607047C04644000020164A10B53B
:104130001368591C26D0013B1360002B22D172B6A4
:10414000124B134A0433934213D9124A012110002F
:10415000147D0C42FCD02021148BFF319B085B00A6
:1041600021431183D3610C4B13800123027D1A423A
:10417000FCD0BFF34F8F094B094ADA60BFF34F8F72
:10418000C046FDE710BDC0464400002000200000EE
:10419000030200000040004102A5FFFF00ED00E027
:1041A0000400FA05704710B5040001F089F82000FA
:1041B00010BD0000F0B5822919D1C3B2294D5A01B2
:1041C000AA189169284C80010C40C021890521431F
:1041D00091612649083340187021506128685B01BD
:1041E0001A5C8A43110030220A431A54F0BD002998
:1041F000FCD1C026C1B21B4C4B01E3189A681A4D82
:10420000B6052A4032439A60194A800182185A60E2
:104210000A000727246808325201115DB9430F00D4
:104220000121394311559F6910493D4040182E43E3
:104230009E6158617020115D814308001021014387
:10424000115599680B48A218084080214903014381
:1042500099609968890B89039960402311790B4310
:104260001371C3E7140B0020FFFFFF8F88060020A7
:1042700048080020FF3F00F0EFF3108303600123A4
:10428000436072B6704773B5836D0400002B1BD179
:104290000600A83635786846FFF7EEFF019BEDB2C1
:1042A000013B02D33578EDB2FAE768460193FFF798
:1042B000A3F8002D01D1002076BD2300A433186897
:1042C000A0342368C01AF7E76846FFF7D5FF22003D
:1042D0000025019BF432013B02D31578EDB2FAE7D9
:1042E00068460193FFF788F8002DE4D02300F033EF
:1042F0001868EC34E5E7000010B5436D4468DBB2A4
:104300005A01A218916809480833084080214903DE
:104310000143916091685B01890B89039160226878
:10432000D318402219790A431A7110BDFF3F00F0DB
:10433000F7B5436D4268DBB219000400083110681C
:1043400049014118C979C90711D55B01D218936891
:104350009B049B0C0CD12000FFF7CEFF63681A680A
:10436000636DDBB208335B01D3187F22DA71F7BDCE
:10437000E16D002923D12100A4310B602300012528
:10438000AC33E56568465360FFF776FF26002000F2
:104390002100019BA836013BF430F5315A1C33D083
:1043A000357002785F1ED2B20A700A78002A04D1F2
:1043B00020000193FFF7A0FFE8E73B00EEE72100B4
:1043C000F0310B600023E3652300603353606846DF
:1043D000FFF752FF0125260020002100019BF43643
:1043E000013BA830F5315A1C0ED0357002785F1EA3
:1043F000D2B20A700A78002A04D120000193FFF794
:104400007BFFE8E73B00EEE768460193FEF7F4FF29
:10441000A4E737B56B46DC1D00230D00237000F0C8
:1044200039FF210000F0C4FE2B681818286020789E
:104430003EBD00000078002810D00121084B1B6809
:104440001A898A431A810822198B0A431A83042283
:10445000198B0A431A830022024B1A607047C04628
:10446000140B00200C0B002010B50F4A93699B0B16
:104470009B03936113680222FF331A729879823A80
:1044800002439A711A7A9207FCD57F24074A214089
:10449000937A0800A3431900802301439172917A13
:1044A0005B420B43937210BD140B0020005000417F
:1044B00010B50C0000F0EEFE210000F0ACFE00286C
:1044C00004D1034A93699B0B9B03936110BDC046C3
:1044D000140B0020F8B50D00832A19D1CBB23B4C48
:1044E0005A01A21891693A48AD010840C0218905D6
:1044F00001439161374920686D1870210833556177
:104500005B011A5C8A43110040220A431A54F8BD29
:10451000022A55D1304A8B009858002802D00368EF
:104520005B699847F82000F0C7FE0400274E2B4B2C
:104530004660036040220021083002F010FB220098
:104540000023A032A3646565E3642365A365E36586
:104550005360D3641372136013654C321372537239
:10456000FF222B001340590171188868184F083337
:104570000740C020800538438860306807265B010B
:10458000195CAD00B1430E000321314319542300DF
:10459000616D606811404901411860334B60616D85
:1045A00063680A401B6852019B180122FF33997A05
:1045B00020000A439A72FFF79FFE074B5C51A6E763
:1045C00011002800FFF7F6FDA1E7C046140B0020FC
:1045D000FFFFFF8F8806002060060020C8730000E0
:1045E00070B505000124064BA200D258002A06D05F
:1045F000210028000134FFF76DFF0A2CF3D170BDB4
:10460000340600200B4BCAB20B488901C91853016C
:10461000C318596199690832890B89039961036844
:1046200052019A180223D3715179823B0B43537183
:104630007047C04688060020140B0020084B8A00F3
:10464000D05810B5002803D003689B68984710BD68
:10465000C9B2044B4901591888688004800CF6E7F8
:1046600060060020140B002010B50C00FFF7E6FFD9
:1046700000280CD0064BE4B21B68083464011C19F6
:10468000802362795B42134363710223E37110BD9F
:10469000140B0020F0B51C00304B85B01B680700E0
:1046A0000D000292002B55D02D4E3178C9B2002951
:1046B00002D11920FFF784FC64233370294BAA0030
:1046C000D058002808D0036822005B6802999847F8
:1046D0000400200005B0F0BD29003800FFF7AEFF50
:1046E000844204D929003800FFF7A8FF0400012103
:1046F000EBB21D4E03935B010193F21893689B0B81
:104700009B039360019A336802989B18FF335A7A8F
:104710000A435A72154BA901C918220002F016FA71
:10472000002CD6D029003800FFF788FF0028D0D110
:104730004021039B326808335B01D3181879014389
:1047400019710121D971019BD318FF339A7A0A4359
:104750009A72BEE701246442BBE7C0460C0B0020FE
:104760007C06002060060020140B00204808002072
:1047700013B56B46DC1D22000123FFF78BFF0128D8
:1047800001D1207816BD01204042FBE770B5CBB2C5
:10479000124A13485C018901891802195160916815
:1047A000104D08330D408021490329434025916075
:1047B0009168890B8903916001685A018A181679FA
:1047C0003543157195796D06FCD55B01C918CB7918
:1047D000DB07FCD500198068C0B270BD4808002016
:1047E000140B0020FF3F00F070B50D0000211400F5
:1047F000FFF7CCFFA04200D9200000230349A342C9
:1048000003D0CA5CEA540133F9E770BD48080020C0
:10481000F0B51E003F4B85B01B680F000192002BC6
:104820003FD08023DB019E423BD83B4C2178C9B26C
:10483000002902D11A20FFF7C3FB6423002523704F
:10484000364BBA01D3180293002E2CD0344B1B6880
:104850000393FF233B401C0000930834039B640137
:104860001C19A379DB0921D02E4B2F49186800F0C1
:1048700025FF2E4B1721584300F020FF2C4BE279E7
:10488000920713D4DA5D002A01D10138F7D2012250
:10489000DA55009B5A01224B9B189A69920B92039E
:1048A0009A6101256D42280005B0F0BD0022204B21
:1048B0003400DA553F2E09D9009B40245A01184B89
:1048C0009B188022996912060A439A612200019975
:1048D000029802F03BF9009BA1045A01104B890C8D
:1048E0009B18029A2D195A619A69361B920B9203F2
:1048F0000A439A61009B039A08335B01D318022292
:10490000DA715979823A0A435A71019B1B19019352
:104910009AE7C0460C0B00207D0600208806002088
:10492000140B00203400002040420F0070110100E1
:104930007F06002070B50D001C000D4BAE01F6186F
:1049400011003000220002F001F9EDB209496D01B9
:104950004D196E61AB69084A20001340AB61AB6929
:10496000A2049B0B920C9B031343AB6170BDC0462A
:1049700088060020140B0020FF3F00F0F7B5104B15
:1049800001901B780F001500002B0CD10D4B160069
:104990001C78002C09D00C4E0C483488201864195F
:1049A00002F0D4F834802800FEBD002EFBD03A1966
:1049B000330000210198FFF7BDFF2418361AF4E7F1
:1049C000080A0020090B00200A0B0020090A002019
:1049D000F8B50F0016000024012A26D9100002F0B5
:1049E000A1F80500380002F07DF90323022201300E
:1049F000400028706B7096420DD9397800290AD092
:104A0000531CDBB20137A9549E4203D00232EC544E
:104A1000D2B2F0E7320029000548FFF7AFFF441E8D
:104A2000A041C4B2280002F087F82000F8BDC046BB
:104A30005C060020F0B50024012685B0184B0F005D
:104A400069461E7005000094FFF7E3FC154B01A9B1
:104A50000B806A3BFF3BCB715A330B72009B8C710E
:104A600009334B800E4B4E7108711C703A00092FB0
:104A70000FD00D4F09223E700C4E28000094348058
:104A8000FFF77CFF69462800FFF7C3FC328808491E
:104A90003C702800FFF772FF012005B0F0BDC04652
:104AA000080A002009020000090B00200A0B002060
:104AB000090A002070B5CE7892B005000C00022ED5
:104AC0000BD18B79C9792C4809021943FFF7B2FF42
:104AD000411E8841C0B212B070BD00F0DBFB210066
:104AE00000F07AFB002803D0C117081AC00FF2E7C4
:104AF000012E0ED1E279A37912021A431F49112A1D
:104B000013D8D2B2002A10D02800FFF737FF0120B7
:104B1000E1E7032EDFD1A378002B08D1E279A37956
:104B200012021A431649032AEBD90A78ECE7022B42
:104B300008D1E279A379120212491A432800FFF73B
:104B400047FFC8E7012B05D1E279A37912021A4386
:104B50000D49F3E7032BBED14122010001A801F06A
:104B6000FEFF00F097FB01A900F046FBE279A37974
:104B700012021A4301A9E1E75C060020027400005A
:104B8000F2730000E4730000F6730000CBB2044936
:104B90005B01C9188B699B0B9B038B617047C046F7
:104BA000140B002037B5050048780C000B2810D8EE
:104BB00000F07AFD061B0F2B0F404561494C5A5DF2
:104BC000097801AA002906D1022311802800FFF7E5
:104BD000B1FE01203EBD00231380284B1B78012B22
:104BE00000D1137002230021F0E78A780023012A04
:104BF00003D101AA1380224BF0E7204A1370214A07
:104C000093699B0B9B039361E3E78C78012C06D19E
:104C100000211B4B01AA1C7011702300D6E7012054
:104C2000002CD7D1154B174A187093699B0B9B0327
:104C30009361CFE789782800FFF716FCC9E72800C1
:104C4000FFF738FFC6E701230F4ACCE70B780020B7
:104C5000DB06BFD12800FFF7C3FCA2780A4B0B4844
:104C60001A6000F0FFFCCAE70123094ABBE78A7813
:104C7000074B1A60C3E70020ACE7C0467E06002061
:104C800086060020140B00200C0B0020280C0020AE
:104C9000100B00204A4BF7B51E780500002E00D0FF
:104CA0007EE0484C23689A8B12070DD5082231000C
:104CB0009A833000FFF77EFA10222368FF33997A37
:104CC0000A439A72404B1E6023689A8B52071FD585
:104CD00004229A833D4A1378002B0AD01378013BB3
:104CE000DBB213701378002B03D101211A20FFF7D8
:104CF00067F9374A1378002B0AD01378013BDBB2EF
:104D000013701378002B03D101211920FFF758F9F4
:104D10002368FF331A7A920603D52022597A0A4370
:104D20005A721A7AD20623D569460800294AC0CA9F
:104D3000C0C0A268920B9203A2604022587902433D
:104D40005A7160230A7828001A422AD1FFF72AFFF5
:104D50002368FF33002827D08022997952420A43E2
:104D60009A711A7A520603D54022597A0A435A7226
:104D70007F2601252368FF331E722F002368083722
:104D80007F01DB19DB79002B07D0134BAA00D05829
:104D900000280DD003681B6898470135082DECD119
:104DA000F7BDFFF785FBD3E720210C4A9171D8E7C7
:104DB00029000B4800F02CFC2368DF19FE71ECE79A
:104DC000090B0020140B00200C0B00207D06002096
:104DD0007C0600204808002060060020FF500041AB
:104DE000280C002010B50248FFF754FF10BDC04644
:104DF0005C06002080235B000380002343600733B0
:104E00000372704783000148C018704734060020C1
:104E1000836C402B09D03F22036CC154036C0133D7
:104E200013400364836C013383647047F7B5050056
:104E30006846FFF721FA00264022019B013B02D37E
:104E40002E6D961BFAE768460193FEF7D5FAAB6D17
:104E50006846002B4FD1FFF70FFA2900019BA831BC
:104E6000013B5A1C0CD00C785A1EE4B2002C05D120
:104E700068460193FEF7C0FA2000FEBD1300F0E77C
:104E8000684601930024FEF7B7FA2A002900A032F1
:104E90001368A431B4420ED0086898420BD9280098
:104EA000591CEB181160603319780830C9B2FFF74C
:104EB000AFFF0134E9E709689942DDD100231360AF
:104EC0000133AB656846FFF7D7F92F002A000021B0
:104ED000019BA837013BF532581CC9D039701078B6
:104EE0005E1E002805D0117028000193FFF704FA18
:104EF000EBE73300F0E7FFF7BFF92900019BF4313E
:104F0000013B5A1C06D00C785A1EE4B2002CAFD0DC
:104F10001300F6E7684601930024FEF76DFA2A00B5
:104F20002900EC321368F031B44202D0086898428C
:104F30001DD8096899429FD1002368461360AB656C
:104F4000FFF79AF92F002A000021019BF437013B5B
:104F5000F532581C00D18BE7397010785E1E00289E
:104F600011D0117028000193FFF7C6F9EAE7280075
:104F7000591CEB181160AC3319780830C9B2FFF72F
:104F800047FF0134CBE73300E3E710B50400FFF738
:104F90004DFF206D10BD10B50400FFF747FF236DD6
:104FA000002B03D0E36CE418207A10BD01204042AE
:104FB000FBE7F7B517000E000400FFF737FF684660
:104FC000FFF75AF93F2200259446019B013B5A1CEA
:104FD00019D0BD4215D2226D002A12D00121226DB6
:104FE0004942002A0AD06046E26CA218117AE26CAB
:104FF00001320240E264226D013A226571550135A9
:10500000E7E7013BE3E768460193FEF7F5F928007F
:10501000FEBD0000014B024A1A607047140B0020CD
:1050200000500041F7B50024514B012105001A2022
:105030001C70FEF779FF01211A20FEF7C1FF4D4BCE
:10504000012119201C70FEF76FFF01211920FEF7C6
:10505000B7FF2023484A0F20D1690B43D3610122B7
:1050600046490B7813430B70454B197881431970EF
:1050700006211C782143197042490C7822430A709A
:105080001A7802401A70602219780A431A703E4B4F
:105090003E4A5A805F78FF09FCD13D48FEF7F8FB95
:1050A00001233C4C3C4E2268300011780B431370B6
:1050B00080223900520001F052FD22689378DB070C
:1050C000FCD456621F26354B1B68590B980C9B016C
:1050D000314030405B0FB14200D105211F2800D183
:1050E0000238072B00D1043B31408901178D019113
:1050F0002B4930400F40019939431185118D07002C
:10510000B143080038431085118D1803254B7F26C5
:105110000B4003430C2013850823D17881430B43B4
:105120000321D3702268D3788B4301390B43D370AA
:1051300022681378334013700423226816783343AF
:1051400013702268C1241389A40083431648138175
:1051500003591B021B0A0351802303601378134871
:105160001943012311702B70002100F0EBF8F7BDFB
:105170007D0600207C0600200004004058440041C9
:105180003C44004159440041000C004006400000EE
:10519000E54D0000140B0020180B00202460800057
:1051A0003FF8FFFFFF8FFFFF00E100E0280C002029
:1051B00070B50E0000254468002C0BD02368310028
:1051C0005B6820009847002802DB2D18E468F3E7AD
:1051D00001256D42280070BD70B50D004468002C9B
:1051E00008D0236829009B6820009847002802D136
:1051F000E468F4E7200070BD70B50D004468002C31
:1052000007D0236829002000DB689847E4682D1840
:10521000F5E72C7070BD70B50D004468002C08D007
:10522000236829001B6820009847002802D1E46801
:10523000F4E7200070BDF8B542788B790D00017A53
:105240009B18040000208B4222DC6368834219D142
:105250006560002623786A71EA792B719B182370A8
:10526000AB79B34213D9AB68B7006078DF19FFF7A9
:10527000C9FD3B68013603606378F6B201336370A1
:10528000EEE70B00D9680029FBD1DD60E1E70120E2
:10529000F8BD000070B50126054D064C2B68334261
:1052A00003D12000FFF7A6FD2E60200070BDC04690
:1052B000180C00201C0C002010B501F033FC10BDB0
:1052C00010B501F039FC10BD0020704770B50F26F5
:1052D000CB1D013902003240D5B22C000009303418
:1052E000092A00DD07341C70013B8B42F2D170BDEE
:1052F00010B50C000B4B1868FFF7E8FF21000A4BB4
:1053000008311868FFF7E2FF2100084B10311868D8
:10531000FFF7DCFF2100064B18311868FFF7D6FFB6
:10532000202010BD0CA0800040A0800044A0800080
:1053300048A0800008B4024B9C46103808BC604767
:10534000F1520000704770473F20704713B56B461D
:105350000268D9710733546819000122A04716BDAD
:1053600070B50A260B7892B06E44023305000B70BC
:105370003C220021300001F0F2FB394801AC0690DC
:10538000384824210790062020776846364AA174C1
:105390002281364A364BA281FD3AFF3A8018C17706
:1053A000684623390630C17768460730C17702A8BE
:1053B000C1770720F277032608316944C87703A92B
:1053C000CE7710212B366E443170092621851F318E
:1053D00069440E700CA9053E0E7033212380022310
:1053E00069440B7006360DA90E7022493536A18628
:1053F0003B216E44307010A86274E27702703D3237
:1054000069446A440B70137040210022E3702371D9
:105410006371A37341336B44218719705A702B7DDC
:10542000C039A370A37263770133DBB2A3776A7DBF
:105430000B200D0068441543C57731206844037084
:105440003A23501C6B441870412302320A436B44C8
:105450001A70210042220848FFF790FA12B070BD7E
:1054600010010424020605240904000001020000C2
:10547000080B0000070500005C06002008B4024B82
:105480009C46103808BC60476153000070B5027D2F
:105490000B790C0000259A420BD10B784E78A12B8A
:1054A00009D1212E05D107221B491C48FFF766FAB6
:1054B0000135280070BD212BFBD1202E22D10722DF
:1054C00015491648FFF790F99622134BD200196838
:1054D00091421DD1DB79DB071AD4FA20FEF714FEC6
:1054E00000210E48FFF752FB0125232EE1D1E3787E
:1054F000A2781B0213430A4A002108481360FFF7F1
:1055000045FBD6E7222EEFD18A78034BDA71DBE731
:10551000FEF704FEE4E7C0464C0000205C060020D5
:105520004800002008B4024B9C46103808BC604775
:105530008D54000010B508220021024801F00FFB35
:1055400010BDC0464C00002010B5417D006A0131FD
:10555000FFF774F8034B1B6801335A1E9341181868
:1055600010BDC0465400002010B5417D006A0231D4
:10557000FFF77AF810BD10B5417D006A0231FFF7E0
:1055800041F810BD70B50D00417D040013000231DB
:105590002A00006AFFF73CF9002801D1012363606B
:1055A00070BD000010B5054C23685A1C04D1036877
:1055B0005B69984703002060180010BD540000206C
:1055C000074A0300106810B5411C03D001235B4259
:1055D000136010BD597D186A0131FFF7C9F8F8E76B
:1055E0005400002010B5FEF759F9F423FF330024CE
:1055F000984207D9044B0A20DC79631E9C41E4B22F
:10560000FEF782F9200010BD4C00002000207047FA
:1056100070470000FA239B0010B583600F4B0022F7
:10562000C3820300283383610D4B04004260C261D2
:105630001800503323610830631D21622060DA773F
:105640008323A362813BE36280332363FFF722FE5F
:1056500021001031FFF7EFFD200010BD0302000014
:1056600014740000022110B5094B1A68437D5B01D8
:10567000D318FF339C7A21439972437D0133DBB207
:105680005B01D3180122FF33997A0A439A7210BD45
:10569000140B002010B502490248FFF7BBFF10BDF4
:1056A0005C060020280C002002B47146490849001D
:1056B000095C49008E4402BC7047C0460022430882
:1056C0008B4274D303098B425FD3030A8B4244D3CA
:1056D000030B8B4228D3030C8B420DD3FF2209020C
:1056E00012BA030C8B4202D31212090265D0030BCB
:1056F0008B4219D300E0090AC30B8B4201D3CB03C1
:10570000C01A5241830B8B4201D38B03C01A524102
:10571000430B8B4201D34B03C01A5241030B8B4204
:1057200001D30B03C01A5241C30A8B4201D3CB02EF
:10573000C01A5241830A8B4201D38B02C01A5241D4
:10574000430A8B4201D34B02C01A5241030A8B42D7
:1057500001D30B02C01A5241CDD2C3098B4201D3EF
:10576000CB01C01A524183098B4201D38B01C01A6D
:10577000524143098B4201D34B01C01A52410309E4
:105780008B4201D30B01C01A5241C3088B4201D393
:10579000CB00C01A524183088B4201D38B00C01A40
:1057A000524143088B4201D34B00C01A5241411A67
:1057B00000D20146524110467047FFE701B5002074
:1057C00000F0F0F802BDC0460029F7D076E7704738
:1057D00003460B437FD4002243088B4274D3030952
:1057E0008B425FD3030A8B4244D3030B8B4228D3F3
:1057F000030C8B420DD3FF22090212BA030C8B4219
:1058000002D31212090265D0030B8B4219D300E0B8
:10581000090AC30B8B4201D3CB03C01A5241830B3D
:105820008B4201D38B03C01A5241430B8B4201D3ED
:105830004B03C01A5241030B8B4201D30B03C01A16
:105840005241C30A8B4201D3CB02C01A5241830A90
:105850008B4201D38B02C01A5241430A8B4201D3BF
:105860004B02C01A5241030A8B4201D30B02C01AE9
:105870005241CDD2C3098B4201D3CB01C01A524150
:1058800083098B4201D38B01C01A524143098B42D9
:1058900001D34B01C01A524103098B4201D30B01C2
:1058A000C01A5241C3088B4201D3CB00C01A5241E7
:1058B00083088B4201D38B00C01A524143088B42AC
:1058C00001D34B00C01A5241411A00D20146524145
:1058D000104670475DE0CA0F00D04942031000D364
:1058E0004042534000229C4603098B422DD3030AB9
:1058F0008B4212D3FC22890112BA030A8B420CD3C9
:10590000890192118B4208D3890192118B4204D3F1
:1059100089013AD0921100E08909C3098B4201D371
:10592000CB01C01A524183098B4201D38B01C01AAB
:10593000524143098B4201D34B01C01A5241030922
:105940008B4201D30B01C01A5241C3088B4201D3D1
:10595000CB00C01A524183088B4201D38B00C01A7E
:105960005241D9D243088B4201D34B00C01A524155
:10597000411A00D20146634652415B10104601D3E2
:105980004042002B00D54942704763465B1000D36C
:10599000404201B5002000F005F802BD0029F8D012
:1059A00016E770477047C0468446101C62468C4616
:1059B000191C634600E0C0461FB500F0D3F900286B
:1059C00001D40021C8421FBD10B500F02BF94042A0
:1059D000013010BD10B500F0C5F9002801DB002032
:1059E00010BD012010BDC04610B500F0BBF9002865
:1059F00001DD002010BD012010BDC04610B500F033
:105A00004DF9002801DC002010BD012010BDC0466A
:105A100010B500F043F9002801DA002010BD012084
:105A200010BDC046002B11D1002A0FD1002900D192
:105A3000002802D00021C943081C07B4024802A173
:105A40004018029003BDC0465DFFFFFF03B46846E7
:105A500001B5029800F024F8019B9E4602B00CBCF0
:105A60007047C04670B500220C4B04000D00FFF7D4
:105A7000CFFF002804D12000290000F095FF70BD61
:105A8000064B00222000290000F046FC00F08CFFAD
:105A900080231B069C466044F1E7C0460000E041BD
:105AA000F0B54F464646D646C0B5040082B00D005C
:105AB000914698468B422FD82CD04146484601F05B
:105AC00001F829000600200000F0FCFF331A9C4674
:105AD000203B9A4600D576E04B46524693401F0045
:105AE0004B46624693401E00AF4228D825D053460D
:105AF000A41BBD41002B00DA7BE0002200230092B2
:105B0000019301235246934001930123624693403F
:105B1000009318E08242D0D9002200230092019322
:105B20000A9B002B01D01C605D600098019902B0B7
:105B30001CBC90469946A246F0BDA342D7D900228C
:105B40000023009201936346002BE9D0FB0798469F
:105B5000414672080A437B0866460EE0AB4201D11B
:105B6000A2420CD8A41A9D41012024196D410021A4
:105B7000013E24184D41002E06D0AB42EED9013E25
:105B800024196D41002EF8D100980199534600194F
:105B90006941002B23DB2B005246D3402A00644688
:105BA000E2401C0053461500002B2DDB2600574613
:105BB000BE40330026006746BE403200801A99413D
:105BC00000900191ACE7624620239B1A4A46DA40D6
:105BD0006146130042468A4017001F4380E7624631
:105BE00020239B1A2A0066469A402300F340134361
:105BF000D4E76246202300219B1A002200910192E3
:105C00000122DA40019280E72023624626009B1A97
:105C1000DE402F00B0466646B74046463B00334361
:105C2000C8E7C046F0B54F464646D6468446C0B59E
:105C30008046194E18030F034D00000B5C0082468E
:105C40003F0B6D0DC90F9146640DDB0F0120B5426E
:105C50000AD0B44203D0A54201D157450CD01CBC98
:105C600090469946A246F0BD66463E43F7D1AC4207
:105C7000F5D154461443F2D10120C845EFD19942E1
:105C800007D0002DEBD163461F433800471EB841B3
:105C9000E5E70020E3E7C046FF070000F0B54F4608
:105CA0004646D6464D00C0B50E03C90F8A462C495C
:105CB0001F035C008046360B6D0D91463F0B640D53
:105CC000DB0F8D421ED08C4216D0002D1ED13043EA
:105CD0008446002C01D13A4323D06246002A1AD0D0
:105CE0009A4529D0514602200139084001381CBC90
:105CF00090469946A246F0BD39001143E5D00220F6
:105D00004042F4E73043FAD1AC420FD0002C0FD11F
:105D10003A43E7D00CE00122013B934318000130E5
:105D2000E5E763460020002BE1D0DBE73A43E6D10C
:105D30009A45D7D1A542D5DCA54205DBBE42D1D8D4
:105D400008D00020BE42D2D25046012301389843E9
:105D50000130CCE7C845C5D80020C845F4D3C6E714
:105D6000FF070000F0B54F464646D6464D00C0B589
:105D70000E03C90F8A462E491F035C008046360B6E
:105D80006D0D91463F0B640DDB0F8D4218D08C4298
:105D900011D0002D18D130438446002C1ED13A4337
:105DA0001CD163460020002B30D05146022001391F
:105DB000084001382AE039001143EAD0022025E0EA
:105DC0003043FBD1AC4226D0002C26D13A4324D11B
:105DD0005146022001390840013817E06246002A86
:105DE0000FD09A45E1D1A54205DBBE42DDD819D0DE
:105DF0000020BE420AD250460123013898430130A8
:105E000004E00122013B9343180001301CBC904682
:105E10009946A246F0BD3A43D0D19A45C5D1A54294
:105E2000C3DCE0E7C845C0D80020C845E3D3EDE7B0
:105E3000FF070000F0B55746DE464E464546E0B542
:105E4000834606000F03480087B092461D003F0BB3
:105E5000400DCC0F002800D16FE0DE4B984238D0C7
:105E60008023FF001B041F43730F3B430193DA4B56
:105E70000027994600239B46F60081442B036900C6
:105E80001B0B52469846490DED0F002900D185E0C5
:105E9000D04B994200D173E04346DA0080231B04C3
:105EA00013435246CC48520F8446134352460020B7
:105EB0006144D20089442100694000918C4601214F
:105EC00049448A460F2F00D990E0C449BF00CF59FA
:105ED000BF465B463B43019300D06AE1022308279B
:105EE000002681469B46C9E732005846019B614621
:105EF0000091022800D175E0032800D1FEE10128BD
:105F000000D02CE100230027002600253F032A0DA6
:105F10003F0BB34812053A4302401B051343009A56
:105F20005B00D1075B080B433000190007B03CBC95
:105F300090469946A246AB46F0BD5B463B43019373
:105F400000D12FE1002F00D1A5E1380000F09CFD29
:105F500003000B3B1C2B00DD96E11D22D31A5A4691
:105F60000100DA405E4608398F4013008E403B4303
:105F700001939C4B00271B1A994600239B467DE703
:105F8000414653460B4393498C46E144002B00D0D5
:105F90001AE102220220174300228CE7134300D1AA
:105FA0000DE14346002B00D181E1404600F06CFD3D
:105FB00002000B3A1C2A00DD72E101004346083959
:105FC0008B4098461D239A1A5346D3401A004346E5
:105FD000134352468A404946081A824989468144F9
:105FE000002068E77B4B002700268EE7140C120484
:105FF000120C1100370C3604350C794328008C46FE
:106000002E0060436044834656432100300C804696
:106010005846794340440291844506D988468021F8
:1060200049028C46E044414602913604010C360C8C
:1060300000048B4681191E0C1B041B0C03911900D4
:1060400079438C46280075436544A8465843050C9F
:1060500045447743A94203D9802149028C466744CD
:10606000290C8C4639000004000C2D042D186144C5
:10607000AB4405915946049101990F043F0C080C5B
:10608000390051434243904602008C46090C8B462E
:1060900062437C4344445C44A04503D980214902C7
:1060A00088464244210C884661460904090C8C4606
:1060B00039005943434370437E430F0CF6182404C0
:1060C000BE19644442448C46B34203D980235B0228
:1060D00098464044029B61469846049B37044344DB
:1060E0009B46AB45AD416B420D0405992D0C8C468A
:1060F0007F196744FD18A8465D462D19A542A441A5
:1061000093466442A446C344DC448F42BF41984551
:106110009B4193459241A445A4415B427F421F436A
:10612000360C52426442BF192243BF1862463818E7
:106130004302D20D039913436A020A43501E82415F
:106140006146ED0D2A434E023243D90100D4B3E03B
:106150000126500832400243DE0732435B08224CDE
:106160005444002C62DD510709D00F201040042850
:1061700005D0101D9042924152429B180200D90155
:1061800004D580241948E40003405444184884424C
:1061900000DD27E75E075B02D2081F0B630516438D
:1061A0005B0DB2E6002399460133042700269B4687
:1061B00064E60323019781460C279B465EE6012295
:1061C00001201743002276E6032303201F434346A2
:1061D00071E6C046FF07000001FCFFFF7474000079
:1061E000FFFF0F800DFCFFFFFF030000FFFFFFFE1E
:1061F000FE0700000023802700933F030026434B47
:1062000083E6019B3200A446584670E6AC466EE633
:10621000802701993F0339422DD03B422BD11F43A8
:106220003F033F0B00951600384B6EE601252D1BF2
:10623000382D00DD66E61F2D40DC35481C0050443B
:10624000160082408440EE40501E82413443144385
:10625000EB40620709D00F222240042A05D0220019
:10626000141D9442804140421B181A023ED501235E
:106270000027002649E68027019B3F031F433F0379
:106280003F0B0094214B40E603005A46283B9A40BE
:10629000002601926DE6584600F0F6FB203057E6E6
:1062A00003005246283B9A401300002293E65046D2
:1062B00000F0EAFB20307BE6CA4650E71F201E00B4
:1062C0004042041BE640202D03D0124C5444A3400E
:1062D0001A43501E8241324307260027164009D038
:1062E0000F200023104014000428B9D122005E07BB
:1062F0005B021F0BD2081643002306E680273F03EC
:106300001F433F033F0B1600004BFEE5FF07000055
:106310001E0400003E040000F8B557464E464546B0
:10632000DE460C000903E0B5490A460F5F00314321
:106330001E03DB0F760A9B46530F3343C84E65009E
:10634000C000E40FD2006D0DA24681467F0D9C4631
:106350009046B74200D1B9E05B46012673409B46A8
:10636000EE1BA34500D183E0002E63DD002F00D09B
:10637000B1E06346134300D123E1731E002B00D02C
:10638000BAE1861A6346B04280410125C91A4042EB
:10639000091A0B0200D447E149024B0A98464346CA
:1063A000002B00D189E1404600F06EFB0300083B62
:1063B0001F2B00DD7CE120223000D21A4146D04064
:1063C000994002009E400A439D4200DD6AE15D1B48
:1063D0006B1C1F2B00DD94E1202110003500C91A31
:1063E0008E40DA408840DD40711E8E411100072248
:1063F0002843002506433240002A09D00F233340AA
:10640000042B05D0331DB342B641764289191E00D4
:106410000B0200D43DE26A1C914B55056D0D9A426A
:1064200000D119E18F4AF6080A4057075202374354
:10643000120B9BE0002E00D0C5E06E1C7605760D99
:10644000012E00DC48E16746861ACB1BB042BF41F3
:106450007F42B8461F004346FF1A3B00B8461B0266
:1064600000D55FE137439AD100220024002579E06E
:10647000002E00DCFAE0002F00D18DE0784B9D4229
:1064800067D0802367461B041F43BC46382E00DCC0
:1064900052E1634613435A1E93411E1886428041BF
:1064A000404209180B0200D4BEE06D4B01359D42FD
:1064B00000D1D2E06B4A73080A4001210E401E430E
:1064C0005108D30707221E43324095E71E001643AA
:1064D00000D045E740E7624B9D423AD080236746B3
:1064E0001B041F43BC46382E00DDEBE01F2E00DCF2
:1064F0003AE133006746203BDF403B00202E05D0C9
:106500004027BF1B6646BE40324390464646721E39
:1065100096413343DAE0002B00D114E26346134383
:1065200000D168E180234E07C008C9081B03064359
:10653000194208D06046C008184204D163460100E1
:10654000D2085E071643F3009946C900720F444D06
:1065500011434B46DE08424B4F073743CA089D4262
:1065600000D16EE012036D05120B6D0D00211203B8
:10657000130B0A0D12051A433B4B2D0513402B43F9
:106580005B00E4075B082343380019003CBC9046DD
:106590009946A246AB46F8BD6346134311D0731E1D
:1065A000002B00D007E186188642804161444042BA
:1065B000091801250B0237D502257BE73E0061460D
:1065C00091463500C5E75C46002D00D0E1E00B00A8
:1065D0000343F3D0731C00D1ACE1214B9F4200D1A7
:1065E0003AE1F343382B00DD6FE11F2B00DD8CE136
:1065F00020250E00ED1AAE40B0460600AA46DE4049
:10660000454635432E005546D940A8406346451EB1
:10661000A8415B1A9C463043161AB2429241634627
:106620005242991A3D00B4E607223240002A00D0B7
:10663000E4E60B4BF6084F073743CA089D4200D0EB
:1066400090E73B00134300D1A6E180231B031A43CC
:106650001203120B024D89E715000022002785E77F
:10666000FF070000FFFF7FFFFFFF0F80002E00D01D
:10667000C7E06B1C5E05760D012E00DCF0E0C84D16
:10668000AB4200D1B9E085180A00854289416244D5
:10669000494251180722CE076D082E43490832405F
:1066A0001D00A9E6BF49ED1A114007223240A3E6BA
:1066B000320028388240002686E6300000F0E4F9F7
:1066C000203073E6634613435A1E9341C61AB04204
:1066D00080414042091A5CE60E00674606431743B4
:1066E000002D5ED1002E00D0F3E0002F00D11EE17E
:1066F0005C46614691462CE7A94FBE427BD01E0006
:10670000F1E610001F3DE840202B03D04021CB1ABA
:106710009A401643731E9E410722064332400021D1
:10672000002583E7161A6346B2428041591A404257
:106730000B1A98465C4632E61F2E00DDABE02027A0
:10674000BB1B9A4663465746BB40994613004F46CB
:10675000F3401F433B005746BA40571EBA4113430C
:106760006246F240891898E62027BB1B9A4663468A
:106770005746BB40994613004F46F3401F433B002A
:106780005746BA40571EBA4113436246F240891A2F
:106790009CE7834B9F425FD080252D0473422943A1
:1067A00020E7002E0CD1002F00D1D0E05C466146DE
:1067B00091467B4DCDE67A4FBE421CD01E0065E669
:1067C000002F18D0C0084E0706438020C9080003D8
:1067D000014208D06346DC08044204D12100DA46B5
:1067E000D2085E071643F300994601245346C900B8
:1067F000720F11431C406A4DABE61D0000220027BA
:10680000B4E6002D59D10B00034300D1D6E6731C2A
:1068100000D1B2E0624B9F421ED0F343382B6FDCB5
:106820001F2B00DD97E020250E00ED1AAE40B0468C
:106830000600AA46DE40454635432E005546A84090
:10684000D940451EA8418C440643B6189642924151
:10685000514261443D0025E63D006146914678E69F
:106860000B000343002D00D055E6002BF5D0634606
:10687000134300D16DE68618864280416144404250
:10688000091800220B0200D4D0E6464B013519400E
:10689000B2E5B1465DE633006746203BDF403B0092
:1068A000202E05D04027BF1B6646BE40324390468F
:1068B0004646721E96413343EFE5394B9F42CBD09B
:1068C00080252D0473422943A8E70843411E8841CF
:1068D000A2E6002F00D13CE66346861ACF1AB042EA
:1068E0009B415B42FB1A98461B024ED5161A634623
:1068F000B2429241591A5242891A5C4600227BE503
:1069000001430E00711E8E419FE71D000E00203DC9
:10691000EE40B046202B04D04025EB1A99400843A6
:10692000814648464346411E8841184374E600228A
:10693000002417E6161A6346B2429241591A52428F
:10694000891A3D0025E561469146154D01E68022F4
:106950000024120379E61D000E00203DEE40B046F3
:10696000202B04D04025EB1A9940084381464E461F
:106970004346711E8E411E4367E7861896429B412F
:1069800061445B42C9183D008CE547463743CED091
:1069900007224146324049E600273A00E6E5C04674
:1069A000FF070000FFFF7FFF30B5144D0A034B00C7
:1069B000120B5B0DC90F0024AB4211DD104CA3423A
:1069C00010DC8024640322430E4CE41A1F2C0CDDDF
:1069D0000D48C31ADA4013005C42002900D11C00A4
:1069E000200030BD094BCC18FAE7094DE040AC4619
:1069F00063449A4013000343EEE7C046FE030000E1
:106A00001D0400003304000013040000FFFFFF7F9B
:106A1000EDFBFFFF70B500282DD0C317C5185D40F2
:106A2000C40F280000F030F8154B1B1A5B055B0DF6
:106A30000A2815DD0B38854000222D032D0B00217F
:106A400010002D030A0D2D0B12052A430D4D1B05B9
:106A50002A4013435B00E4075B082343190070BD21
:106A600002002900153291400A000B21081AC54086
:106A70002D032D0BE3E70024002300250022DEE791
:106A80001E040000FFFF0F801C2101231B049842FD
:106A900001D3000C10391B0A984201D3000A0839AF
:106AA0001B09984201D30009043902A2105C401866
:106AB0007047C0460403020201010101000000000A
:106AC0000000000010B5002903D1FFF7DDFF2030E2
:106AD00002E0081CFFF7D8FF10BDC04670B50026C5
:106AE0000C4D0D4C641BA410A64209D1002600F0E9
:106AF00011F90A4D0A4C641BA410A64205D170BDC1
:106B0000B300EB5898470136EEE7B300EB589847CF
:106B10000136F2E7BC000020BC000020BC000020D1
:106B2000CC00002010B5034B0100186800F06AF893
:106B300010BDC0465800002010B5034B0100186876
:106B400000F016F810BDC04658000020002310B514
:106B50009A4200D110BDCC5CC4540133F8E7030065
:106B60001218934200D1704719700133F9E7000001
:106B700070B50500002910D00C1F2368002B00DA27
:106B8000E418280000F0B5F81D4A1368002B05D161
:106B900063601460280000F0ADF870BDA34209D90D
:106BA000216860188342F3D118685B68411821603E
:106BB000EEE713005A68002A01D0A242F9D91968F9
:106BC0005818A0420BD12068091858181960824241
:106BD000E0D110685268411819605A60DAE7A042A3
:106BE00002D90C232B60D5E721686018824203D1BB
:106BF000106852684118216062605C60CAE7C04654
:106C00005C0C0020032370B5CD1C9D4308350600A5
:106C10000C2D1ED20C25A9421DD8300000F069F8B9
:106C2000254A14682100002919D1244C2368002B1F
:106C300003D1300000F044F820602900300000F05B
:106C40003FF8431C2BD10C233000336000F052F886
:106C500003E0002DDFDA0C233360002070BD0B68E9
:106C60005B1B19D40B2B03D90B60CC18256003E0F8
:106C70004B688C420DD11360300000F03BF82000CF
:106C800007220B30231D9043C31AE7D05A42E2502B
:106C9000E4E763600C00EFE70C004968C3E70323F7
:106CA000C41C9C43A042E1D0211A300000F008F837
:106CB000431CDBD1C7E7C0465C0C0020600C002001
:106CC000002370B5064C05000800236000F014F89E
:106CD000431C03D12368002B00D02B6070BDC0463D
:106CE000BC0F00200023C25C0133002AFBD1581ED8
:106CF0007047704770470000044A1368002B00D1AA
:106D0000034B1818106018007047C046640C002030
:106D1000C00F0020F8B5C046F8BC08BC9E467047BE
:106D2000F8B5C046F8BC08BC9E46704700C181401B
:106D300001C0804101C0804100C1814001C080414B
:106D400000C1814000C1814001C0804101C080413B
:106D500000C1814000C1814001C0804100C181402B
:106D600001C0804101C0804100C1814001C080411B
:106D700000C1814000C1814001C0804100C181400B
:106D800001C0804101C0804100C1814000C18140FB
:106D900001C0804101C0804100C1814001C08041EB
:106DA00000C1814000C1814001C0804101C08041DB
:106DB00000C1814000C1814001C0804100C18140CB
:106DC00001C0804101C0804100C1814000C18140BB
:106DD00001C0804101C0804100C1814001C08041AB
:106DE00000C1814000C1814001C0804100C181409B
:106DF00001C0804101C0804100C1814001C080418B
:106E000000C1814000C1814001C0804101C080417A
:106E100000C1814000C1814001C0804100C181406A
:106E200001C0804101C0804100C1814000C0C1015A
:106E3000C30302C2C60607C705C5C404CC0C0DCDEA
:106E40000FCFCE0E0ACACB0BC90908C8D81819D95A
:106E50001BDBDA1A1EDEDF1FDD1D1CDC14D4D5158A
:106E6000D71716D6D21213D311D1D010F03031F17A
:106E700033F3F23236F6F737F53534F43CFCFD3DAA
:106E8000FF3F3EFEFA3A3BFB39F9F83828E8E9299A
:106E9000EB2B2AEAEE2E2FEF2DEDEC2CE42425E54A
:106EA00027E7E62622E2E323E12120E0A06061A1BA
:106EB00063A3A26266A6A767A56564A46CACAD6D6A
:106EC000AF6F6EAEAA6A6BAB69A9A86878B8B979DA
:106ED000BB7B7ABABE7E7FBF7DBDBC7CB47475B50A
:106EE00077B7B67672B2B373B17170B050909151FA
:106EF0009353529296565797559594549C5C5D9D2A
:106F00005F9F9E5E5A9A9B5B995958988848498919
:106F10004B8B8A4A4E8E8F4F8D4D4C8C44848545C9
:106F200087474686824243834181804000000000BB
:106F30000B0000000200000004000000FF00FFFF43
:106F4000FFFF0B00000000000A000000020000002C
:106F500004000000FF00FFFFFFFF0A000000000028
:106F60000E0000000800000004000000FF00FFFF0A
:106F7000FFFF0E00000000000900000004000000F8
:106F80001C000000FF0001000100090000000000DB
:106F900008000000040000001C000000FF000000CA
:106FA00000001000000000000F00000004000000BE
:106FB0001C000000FF00010301030F00000000009F
:106FC00014000000050000002C000000FF0002007B
:106FD0000200040000000000150000000500000091
:106FE0002C000000FF00030003000500000000006B
:106FF00006000000040000001C000000FF0000016B
:10700000000106000000000007000000040000006E
:107010001C000000FF00010101010700000000004A
:1070200012000000040000001C000000FF0000032C
:107030000003020000000000100000000400000037
:107040001C000000FF000002000200000000000021
:1070500013000000050000002C000000FF000300EA
:107060000300030000000000110000000400000005
:107070001C000000FF0001020102010000000000EE
:107080000200000001000000020000000000FFFFFD
:10709000FFFF0200010000000800000001000000E6
:1070A00018000000020000040004080001000000B5
:1070B00009000000010000001800000003000104A6
:1070C00001040900000000000400000001000000AD
:1070D000000000000400FFFFFFFF040000000000AC
:1070E0000500000001000000000000000500FFFF97
:1070F000FFFF050001000000020000000100000089
:10710000000000000A00FFFFFFFF02000000000077
:10711000160000000200000004000000FF00FFFF56
:10712000FFFF060000000000170000000200000042
:1071300004000000FF00FFFFFFFF07000000000049
:107140000C0000000300000004000000FF00FFFF2F
:10715000FFFF0C00010000000A0000000300000017
:1071600004000000FF00FFFFFFFF0A000100000015
:107170000B0000000300000004000000FF00FFFF00
:10718000FFFF0B0001000000030000000B000000E7
:1071900004000000FF00FFFFFFFFFF0000000000F1
:1071A0001B0000000B00000004000000FF00FFFFB8
:1071B000FFFFFF00000000001C00000006000000B0
:1071C00000000000FF00FFFFFFFFFF0000000000C5
:1071D000180000000600000000000000FF00FFFF94
:1071E000FFFFFF0000000000190000000600000083
:1071F00000000000FF00FFFFFFFFFF000100000094
:10720000160000000300000000000000FF00FFFF68
:10721000FFFFFF0001000000170000000300000056
:1072200000000000FF00FFFFFFFFFF000000000064
:10723000160000000200000000000000FF00FFFF39
:10724000FFFFFF0000000000170000000200000028
:1072500000000000FF00FFFFFFFFFF000000000034
:10726000130000000200000000000000FF00FFFF0C
:10727000FFFFFF00000000001000000002000000FF
:1072800000000000FF00FFFFFFFFFF000000000004
:10729000120000000200000000000000FF00FFFFDD
:1072A000FFFFFF00000000001100000002000000CE
:1072B00000000000FF00FFFFFFFFFF0000000000D4
:1072C0000D000000040000000C000000FF000100A1
:1072D000FFFF0D0000000000150000000500000089
:1072E0000C000000FF000300FFFFFF000000000093
:1072F00006000000040000000C000000FF00000178
:10730000FFFFFF0000000000070000000400000075
:107310000C000000FF000101FFFFFF000000000063
:10732000030000000100000002000000FF00FFFF5A
:10733000FFFFFF000000000002000000010000004D
:10734000020000001400FFFFFFFF02000000000029
:107350001E0000000400000006000000FF00FFFF08
:1073600000010A00000000001F00000004000000EF
:1073700006000000FF00FFFF01010B0000000000FD
:10738000000000001D370000ED37000097330000BB
:10739000E333000091330000B9370000A733000049
:1073A0008133000051340000BF3300007D33000002
:1073B0001A001A001B001B001C001C001D001D00F1
:1073C000000000000000000031430000B34F000047
:1073D0008B4F0000974F0000A5410000A74100001F
:1073E0008742000041726475696E6F205A65726F42
:1073F00000000403090441726475696E6F204C4CEF
:10740000430012010002EF02014041234D800001C0
:107410000102030100000000000000004D530000C5
:10742000855500004953000069550000495500008A
:10743000C1550000A555000045530000475300000A
:1074400035550000E55500007755000061530000F8
:10745000C95200008D540000F1520000F0FFFFFF00
:1074600000000000255500007D5400000D5600006E
:1074700035530000EC5F0000EE5E0000EE5E0000A1
:107480000C620000E85E0000E85E0000F4610000AD
:107490000C620000E85E0000F4610000E85E00009D
:1074A0000C62000002620000026200000262000042
:0874B000106200000000000062
:0874B800E8E5FF7F0100000080
:1074C000002D3101000000000E0F10111213090AE7
:1074D0000B020304050607080C0D00000020004203
:1074E0000024004200280042002C004200300042EC
:1074F0000034004240420F000A0000000A00000071
:1075000008000000FFFFFFFFFFFFFFFF00C20100B8
:1075100000000800FFFFFFFF5C00002000000000EB
:10752000000000000000000000000000000000005B
:10753000000000000000000000000000000000004B
:10754000000000000000000000000000000000003B
:10755000000000000000000000000000000000002B
:10756000000000000000000000000000000000001B
:10757000000000000000000000000000DD2000000E
:10758000B53000001550000095560000B5200000F1
:040000030000382D94
:00000001FF
