:020000040000FA
:10000000FC7F00200D060000FD0500000106000039
:1000100000000000000000000000000000000000E0
:1000200000000000000000000000000005060000C5
:100030000000000000000000090600006507000045
:1000400010B5064C2378002B07D1054B002B02D0AE
:10005000044800E000BF0123237010BD5C000020B5
:10006000000000000819000008B5084B002B03D061
:100070000748084900E000BF07480368002B03D089
:10008000064B002B00D0984708BDC046000000007A
:100090000819000060000020580000200000000047
:1000A000154A164B1178002909D115491878097895
:1000B0004118C9B21970802012498002C8611178B4
:1000C0000131C9B211701978F02902D819780929BB
:1000D00009D80B4908784042C0B2087018780978EE
:1000E0004118C9B2197012781B789A4203D1802244
:1000F000044B9202DA617047780000200100002072
:10010000000000200044004110B5C3699C07FCD4E6
:1001100003680224A3430360C46901231C42FBD18A
:100120000468234303600368DC07FCD4C46901232B
:100130001C42FBD1C469DC401C42F7D1084B1A4376
:100140000260C3695A07FCD4C0239B0243608181CB
:10015000C3699C07FCD4036802221343036010BDEB
:1001600004000040037EDA07FCD5018570470000DB
:10017000027E01235107FBD5428B1A4207D1428BE5
:10018000DA401A4203D1428B92081A4202D0034B42
:1001900001221A70008DC0B27047C046790000205D
:1001A00070B50368041C988B1A1C0821FF320842A2
:1001B00026D0802099839872112353704021144BCC
:1001C000917150715E68134DC0202E40800506432A
:1001D0005E605E693540284358610F4818600F48DB
:1001E00018615D680E4828408025AD02284358609C
:1001F0005868800B8003586000235171237105E01B
:10020000137ADA0602D5201C00F0E6FA207970BDD8
:1002100098010020FFFFFF8F9800002018010020A8
:10022000FF3F00F0002303714371044B01608360C2
:100230000B78022213430B707047C046A1010000E7
:1002400038B5364B2021DA6901200A43DA61344B94
:1002500006241A7802431A70324B0F221978914300
:1002600019701978214319702F490C7820430870B0
:1002700019780A401A701A7860210A431A702B4BB9
:100280002B4A5A805A7852B2002AFBDB294B0121B3
:100290001A780A431A709A78D107FCD42648026863
:1002A000510B1F221140914200D1052111408C01B8
:1002B0001D8D22492940214319850468A10C0A405B
:1002C0001F2A00D11D221C8D1F210A408C4322436E
:1002D0001A8502680721D20D0A408A4200D1032202
:1002E0000A40188D1103164A02400A431A851978EC
:1002F0007F220A401A701A78042112480A431A70A1
:1003000058621A890C218A431A811A8901218A4369
:100310001A810021802201F076F938BD00040040E6
:10032000584400413C44004159440041000C004005
:100330000640000000500041246080003FF8FFFFAD
:10034000FF8FFFFF98010020F7B5141C1F4A5F01C3
:1003500001971D1CD319061C5869271C4000400F2B
:1003600003301033C74006D00F1C80225968120694
:100370000A435A6009E02F1C7B1E9F41144BBF01AA
:10038000FF18381C221C01F035F901990F48083577
:1003900042181761131C5269A104920B890C920335
:1003A0000A435A6159690B4A0A405A616B01F318B2
:1003B0000222DA715979802252420A435A716B0142
:1003C000F318DB799A07FAD5201CFEBD98010020AE
:1003D00018010020FF3F00F0F8B51A4E051C3378D5
:1003E000141C002B12D1184B184A1A645A6C920B29
:1003F00092035A64586C164A02405A64A2235B0066
:10040000EA5C40200243EA54012333704827FF3757
:10041000EA5D0123134012D00B4B5A6C9204920CEC
:10042000A24202D25C6CA404A40C081C221C074942
:1004300001F0E0F80123EB550023337000E01C1CB1
:10044000201CF8BD7A00002098010020D800002070
:10045000FF3F00F0FF3083792022002900D11022D5
:100460001343837170470000084BFF305A69920BA9
:1004700092035A6102230372827980235B42134301
:100480008371037A9A07FCD57047C0469801002013
:1004900080235B421943C9B28172704770B5A023B3
:1004A00003225B00C254134B134A5C6CC0211440FE
:1004B00089050C4346255C64FF35402444550F4DA7
:1004C00030261D6490256D0046555D6B154029430F
:1004D000922559636D0080214155094D1D63B0255A
:1004E0006D0044555C6F22405A67B2235B00C154D3
:1004F00070BDC04698010020FFFFFF8FD80000208C
:1005000058010020024B5B785BB2002BFADB70478E
:10051000000C0040024BDB68DA06FBD57047C04692
:1005200000080040F8B52A4B1E2259689143022268
:1005300011435960274B28491E1C9982998A0A4306
:100540009A82F3680227234C3B42FAD0234D0123C1
:10055000AB60FFF7D7FF224B6B60FFF7D3FF82231F
:10056000DB016B80FFF7CEFFA38C80229343A38433
:10057000FFF7D0FF1B4BE362FFF7CCFFA38C1A4AB7
:100580001343A384FFF7C6FFA38C1F43A784F3681C
:100590001A06FCD50F4BDB685A06F8D50024FFF786
:1005A000B9FFAC60FFF7AEFF104B6B60FFF7AAFF1F
:1005B0000F4B104AC0215A600F4A0906106A000208
:1005C000000A0143116207229C601A60F8BDC04610
:1005D00000400041000800400C060000000C0040F4
:1005E00001050100B805FF7D040A000000070300B3
:1005F00010E000E0E703000000ED00E00EBEFEE7C3
:100600000DBEFEE705BEFEE702BEFEE70E4A0F483E
:1006100038B5824204D10E4A0E4B93420ED10AE005
:100620000D4C9442F7D00023D1188842F3D9E558F5
:1006300004330D60F8E700F011F804E09342FAD2B9
:10064000002102C3FAE7FEE7000000205C00002062
:10065000A80300205C0000200C19000038B5344BC2
:100660001A681C1C013221D0324A191D1160D9B2FE
:1006700000291BD1304A1078012210402F4A0AD19C
:1006800015682F498D4201D110600FE011602D498E
:1006900001390029FCD11160226882F30888FF2209
:1006A0009343294A9360224B5B681847FFF73AFF50
:1006B00062B600F0CDFD00F05BF8244B8022920280
:1006C00023499A6008220A602249041C0A60802299
:1006D00012059A609A61204B204AC0215A601A4A3A
:1006E0000906106A0002000A0143116200229A60A2
:1006F00007221A60A368201C9847194B002801D0D4
:1007000001221A701A78002A05D0002000F094FA0D
:1007100000F01AFBFCE71B78002BEBD100F00CFE7D
:100720000028E7D0012000F087FA00F00DFBFCE77D
:10073000002000001802002038040040FC7F002048
:100740003581730748E8010000ED00E000440041F6
:10075000884400419844004110E000E0E7030000B5
:100760007B00002008B5FFF79BFC00F0C9FA08BD2C
:1007700010B5054B054C2360FFF762FD201C216876
:10078000FFF750FD201C10BD005000411C0200204E
:1007900070B5051CC0B0081C161C0C1C00F03BFFFB
:1007A00040006A460323023053701070760801231C
:1007B000E218013A11785A00002906D1281C69462E
:1007C0000023FFF7C1FD40B070BDB342F6DA6846C2
:1007D00081520133ECE70000F7B5BA4A0468137898
:1007E000B949271CFF37051C102038720B7053784D
:1007F000B648B74E037093783380D17833880902B6
:100800000B4333801179B34B198051791888090251
:10081000084318809079B0490880D279088812027C
:1008200002430A8040227A71A84F3A78A64F1202FA
:1008300038780F1C0243A9488446181C624500D131
:10084000C2E020DC802149008A4200D16EE109DC4F
:10085000812A00D192E0822A00D195E0802A00D03E
:1008600064E18BE081235B009A4200D1CFE000DAA3
:1008700058E1C0239B009A4200D157E1984B9A421D
:1008800000D14FE152E190231B019A4269D015DC5F
:10089000D023DB009A4222D088231B019A4269D0E0
:1008A000A023DB009A4200D040E1201CFFF7DCFDD2
:1008B0003188286889B2FFF7EBFD3BE1894B9A420A
:1008C00000D12FE100DC31E1874B9A4200D11DE1DC
:1008D000864B9A4200D029E133886B7122E133883C
:1008E0001B0A012B08D10B8812222868934201D8D9
:1008F0000A8892B27E4911E133881B0A022B08D183
:100900000B8843222868934201D80A8892B2794919
:1009100004E133881B0A032B00D007E13388DBB2E4
:10092000012B17D0002B07D0022B00D0FEE00A8845
:100930002868D2B2704911E0042201A86F4900F082
:1009400059FE3B8804222868934201D83A8892B223
:1009500001A9E3E00A8828686949D2B2FFF718FFC5
:10096000E8E03388201C2B71FFF77EFD201CFFF789
:1009700095FDDFE0291C01C90122CFE06149002378
:100980000B8028680222CAE05E4900220A8018888B
:10099000502210405C4A10701E880F203040188092
:1009A0001888032800D9C1E012781B8808335B013E
:1009B000E418A379002A01D09B0600E0DB06DB0FD8
:1009C0000B8028680222A9E019887F2291434E4AB1
:1009D000C9B2117018880F2101401980318800298F
:1009E00000D0A3E01988002900D19FE019880329CD
:1009F00000D99BE012781B8808335B01E318002ABA
:100A000002D020225A718DE0102159718AE00288AB
:100A10007F239A433C4BD2B21A7001880F220A40BE
:100A200002803288002A00D080E00288002A00D1AB
:100A30007CE00288032A00D978E01B78002B1FD0C5
:100A4000038808335B01E3189B799A066AD503880B
:100A5000202208335B01E3181A71038808335B0115
:100A6000E318DB795F065DD50388402208335B011C
:100A7000E318DA710388022208335B01E3181EE0F1
:100A8000038808335B01E3189B79D9064AD50388AC
:100A9000102208335B01E3181A71038808335B01E5
:100AA000E318DB799A063DD50388202208335B01E1
:100AB000E318DA710388012208335B01E3181A7125
:100AC00030E0C046980000207D0000208200002019
:100AD0008400002086000020800000200203000027
:100AE0000103000021200000A121000021220000BC
:100AF0005C160000040000204C1600003C160000AC
:100B0000401600007E0000207C0000200B88082298
:100B10002868934201D80A8892B207490023FFF758
:100B200013FC07E0201CFFF79FFC03E0201C0121C1
:100B3000FFF790FCF7BDC0464800002007B5054B05
:100B40000122019001A91868131CFFF7FDFB012089
:100B50000EBDC0461C02002013B5054B6C46073481
:100B60001868211C0122FFF737FC207816BDC0460B
:100B70001C02002010B5074C201CFFF711FB031CC2
:100B80000020834205D022684823FF33D05C012334
:100B9000184010BD1C02002010B5054A0C1C031C97
:100BA000191C10680123221CFFF7CEFB201C10BD6E
:100BB0001C02002070B5084C061C201C0D1CFFF701
:100BC000EFFA0023984205D02068311C2A1CFFF759
:100BD00003FC031C181C70BD1C020020F8B50C4C53
:100BE000051C201C0E1CFFF7DBFA0023271C341CFD
:100BF00098420AD0002C07D0291C221C3868FFF725
:100C0000EBFB241A2D18F5E7331C181CF8BDC04661
:100C10001C02002008B5031C081C111C9847044B3B
:100C2000802212055A61034B64221A8008BDC04617
:100C3000004400418C000020012805D1054B064AE4
:100C40001A60064B187004E0002802D1044A014BD8
:100C50001A6070478C02002090160000940000205B
:100C6000DC16000030B50A1C1C4985B00978031C4D
:100C700000292AD0042A01D1006804E0022A01D107
:100C8000008800E00078520004A98B180B3B9C1AE6
:100C9000A3420BD00F210140092902D83025294356
:100CA00000E0373119700009013BF1E701A9302359
:100CB0000B7078234B700A208B1898700D20D87019
:100CC000074B04321B68D86803E005490968C86807
:100CD000191CFFF79FFF05B030BDC04688000020FB
:100CE0008C02002072B6EFF30883044A1360036895
:100CF00083F30888436818477047C0469002002075
:100D00000D4B1A88002A09D01A88013A92B21A802B
:100D1000002A03D18022094B12059A61084B1A88D8
:100D2000002A08D01A88013A92B21A80002A02D109
:100D3000044B08221A6070478C00002000440041D8
:100D40008A00002098440041F0B591B008A9CE4A2D
:100D50000B1C31CA31C351CA51C360CA60C3CB4BEB
:100D6000CB489A687A255203520F92005258C949CB
:100D700002609C68A4B262430C60C74900240A6008
:100D8000C64A1460C64C2570C64CC74D2368281C43
:100D90001B6940219847002805D0C44B08221A60DF
:100DA000C34B64221A80C34B00221860C24B1D60E3
:100DB000C24BC24DBF4F1A602A683B689A42E3D2C9
:100DC000BD4B1B681A78FF2A00D120E2232A00D0ED
:100DD000F7E1BB4E3378002B06D0B24BB9491B6804
:100DE0000222D868FFF716FFAD4B1B78532B3FD17B
:100DF0003B682A6893421ED9AF4801322A609A1A8A
:100E0000B14B01681B6801310160B04E9A4201D2BA
:100E1000326000E03360A14832680068049000F05E
:100E2000E9FB336829685A182A60A34A1668F11842
:100E30001160A74A13702B68013B2B609E4B1A6808
:100E4000013A1A60A24BA04A1B7811688B420DD25E
:100E500022689248C91A006892699047002805D014
:100E6000924B08221A60924B64221A80C04696E187
:100E7000522B0ED18948944A2368006811685B6937
:100E800003909847934B802212055A616422924B3B
:100E90000DE04F2B05D1814B8B4A1B6812681A70ED
:100EA0007DE1482B05D17D4B874A1B6812681A806B
:100EB00075E1572B05D1794B834A1B6812681A607C
:100EC0006DE16F2B03D1754B0121186807E0682B8A
:100ED00008D1724B7C481B6802211B880360FFF716
:100EE000C1FE5CE1772B06D16C4B77481B6804216F
:100EF0001B680360F3E7472B13D1734B1868FFF7A8
:100F0000F1FE764B1B6883F3088862B6744B1B783E
:100F1000002B00D143E1634B06201B681B689847F8
:100F20003DE1542B04D1012333705E4B1B6864E018
:100F30004E2B0CD13378002B06D15A4B61491B68DC
:100F40000222D868FFF766FE0023337027E1562B94
:100F500057D123686349D8680122FFF75BFE2368F5
:100F60006149D8680322FFF755FE604D2368291CAC
:100F7000D8680122FFF74EFE23685D49D8680D222C
:100F8000FFF748FE2368291CD8680122FFF742FEBC
:100F9000494F4A4D5749002339602B603A1C281CA1
:100FA00013685E1C16601B780593002B03D0036842
:100FB00001330360F4E73B4E2A683368D868FFF7D3
:100FC00029FE33684949D8680122FFF723FE0599B5
:100FD000296049493960384A1368581C10601B78E9
:100FE000002B04D0354B1A6801321A60F3E73368DE
:100FF0002A68D868FFF70EFE3368D86831490222A4
:10100000CBE0314A582B17D1214E234D3668136857
:101010002A68B10093420AD21C4D5808E86137484B
:1010200028801A4D287DC607FBD55B18F2E71D4BBB
:1010300033491B68D868AFE0592B00D07DE01268B7
:10104000164B3049002A02D11B680B6070E00F4D2F
:10105000086819686B680D4E8025AB439208736071
:10106000002A65D0284B094D2B80084E337DDD07C3
:10107000FBD50023064D2D680195AD08AB4247D343
:10108000224D024E35804AE07016000000400041BB
:10109000440200203C020020380200208802002088
:1010A000340200208C0200204802002094440041B9
:1010B0008A0000202C020020300200204002002084
:1010C00088000020D0160000940200209802002022
:1010D00028020020004400418C00002090020020E3
:1010E00094000020AC160000D5160000AE160000DB
:1010F000F8160000B0160000BC16000002A5FFFFA5
:10110000C51600009000002044A5FFFF04A5FFFFC6
:101110009342B5D09D00465901334E51AAE7404E47
:10112000357DEE07FBD59D0049194019D21A97E786
:101130003C4B3D491B68D8682EE05A2B2FD13B4BC6
:1011400017681D680026EF19BD4206D02878311CAB
:1011500000F014F90135061CF6E7324B34491B68E0
:101160000122D868FFF756FD07230F223240111CD9
:1011700036093031092A00DD07311820C0186A46C7
:101180008154013BF1D2236806A9D8680822FFF7F1
:1011900041FD23682749D8680322FFF73BFD264B12
:1011A0007A221A70254B00221A60254B1B78934235
:1011B0002DD01C4B23491B680122D868FFF72AFD5C
:1011C00025E0111C3039C8B21C4B092804D81D6811
:1011D0002A01114319601AE0111C4139052903D86D
:1011E0001E68373A310106E0111C6139052904D81F
:1011F0001868573A01010A4308E02C2A03D10B4A28
:101200001968116001E00C490A7000221A600E4B47
:101210001A6801321A600D4B1A680132C9E5C046DE
:10122000004000418C020020C91600008802002006
:10123000CD160000CF1600003402002094020020DA
:1012400088000020D3160000400200203002002059
:1012500010B51C4B01201A78022402431A701A4B55
:101260000F22197891431970197821431970174981
:101270000C782043087019780A401A701A782021D7
:101280000A431A70124B04211A6A0A431A62114B5C
:10129000114A5A805A7852B2002AFBDBC4220F4806
:1012A0000F499203FEF730FF0E4A002313700E4AD7
:1012B00013700E4A13700E4A13700E4A13700E4AC2
:1012C000137010BD4A440041354400414B44004175
:1012D00000040040000C00401440000000080042E0
:1012E0002AF600009C020020230300209D0200201B
:1012F000A0020020240300202103002008B5C1B271
:101300000248FEF72FFF012008BDC046000800423A
:10131000024B187E4007C00F7047C04600080042CD
:1013200008B5FFF7F5FF0028FBD00248FEF720FFC5
:1013300008BDC0460008004208B5FFF7E9FF0023DA
:10134000984205D0FFF7ECFF031C233B5A42534160
:10135000181C08BD70B5041C0D1C4618B44204D0FE
:101360002078FFF7CBFF0134F8E7281C70BD10B5DB
:10137000041CFFF7D5FF2070012010BD0B0A584058
:10138000034B4000C05A0902484080B27047C04633
:1013900006170000F7B50024051C0F1C261CBC42D4
:1013A00020D0FFF7BDFF114BC0B21B780190002B7E
:1013B0001AD1311CFFF7E2FF0D4B061C1A88002AD8
:1013C00004D10C4A11782A1C002907D001996A1C03
:1013D0002970802F02D11988013919800134A4B2F3
:1013E000151CDCE7301C00E00120FEBD21030020BD
:1013F0009E02002022030020F0B53E4E85B0002260
:1014000003900C1C32703C4B914201D1012201E04F
:101410003A490C801A707F231C4201D080349C43CF
:10142000FFF77EFF3378C0B2002B07D00025357060
:10143000FFF776FF3378C0B2AB4236D1432803D0F2
:10144000712853D01528EBD1012300930120FFF719
:1014500055FF0098FFF752FF00998025C843C0B29E
:10146000FFF74CFF039B00270293244A1388002BAD
:101470001DD1214901930978002918D10198FFF75E
:101480003DFF391C0198FFF779FF013D071C002D36
:10149000EBD1000AC0B2FFF731FFF8B2FFF72EFF21
:1014A000FFF73EFF3378002B0AD035701FE002991A
:1014B000013B09781380029B019101330293DDE720
:1014C000C0B2062807D1009B03990133DBB28031FB
:1014D0000093803C0391002CB8D10420FFF70EFF4D
:1014E000FFF71EFF044B01251C7000E00025281C9F
:1014F00005B0F0BD21030020220300209E02002041
:10150000F0B5384C87B0002301902370994201D187
:10151000012301E0344A1180344A642613704320C9
:10152000FFF7ECFE324FFFF7F3FE002803D1002F48
:1015300003D0013FF7E7002F03D1013E002EEED18B
:101540004DE00125FFF7ECFE2378002B38D1C0B227
:101550000290012805D004283DD10620FFF7CEFED9
:1015600039E005AE0221301CFFF714FF01988021FD
:10157000FFF710FF23780390002B18D1FFF7D0FE60
:101580000702FFF7CDFEBFB223783F18BFB2012B91
:101590000DD0039B9F4207D13378AB4204D1EB437C
:1015A0007278DBB29A4204D01820FFF7A7FE00231E
:1015B00003E00620FFF7A2FE029B2278002A02D059
:1015C000002626700BE0012B05D1019A6B1C80329E
:1015D000DDB20192B6E7054A002313700126301CE4
:1015E00007B0F0BD210300209E020020220300204E
:1015F00000350C0010B50023934203D0CC5CC454DA
:101600000133F9E710BD031C8218934202D0197010
:101610000133FAE770470023C25C0133002AFBD193
:10162000581E7047F8B5C046F8BC08BC9E467047C7
:10163000F8B5C046F8BC08BC9E46704704030904D0
:1016400041726475696E6F204C4C43004172647541
:10165000696E6F205A65726F00000000120100026F
:101660000200004041234D00000201020001000081
:1016700008000000100000002000000040000000F2
:1016800080000000000100000002000000040000D3
:10169000FD1200002113000011130000551300007B
:1016A0006F130000F9130000011500007600200000
:1016B00041707220313120323031390031333A30CB
:1016C000393A343900580A0D00590A0D005A0023DE
:1016D0000A0D003E00322E30000000003D0B0000DD
:1016E000590B0000750B0000990B0000B50B0000B2
:1016F000990B0000DD0B00005B41726475696E6F31
:101700003A58595A5D00000021104220633084404D
:10171000A550C660E770088129914AA16BB18CC1C0
:10172000ADD1CEE1EFF13112100273325222B55237
:101730009442F772D662399318837BB35AA3BDD310
:101740009CC3FFF3DEE36224433420040114E66407
:10175000C774A44485546AA54BB528850995EEE560
:10176000CFF5ACC58DD55336722611163006D77617
:10177000F6669556B4465BB77AA719973887DFF7B0
:10178000FEE79DD7BCC7C448E5588668A7784008DF
:10179000611802282338CCC9EDD98EE9AFF9488900
:1017A00069990AA92BB9F55AD44AB77A966A711A77
:1017B000500A333A122AFDDBDCCBBFFB9EEB799B50
:1017C000588B3BBB1AABA66C877CE44CC55C222CC7
:1017D000033C600C411CAEED8FFDECCDCDDD2AADA0
:1017E0000BBD688D499D977EB66ED55EF44E133E57
:1017F000322E511E700E9FFFBEEFDDDFFCCF1BBFF0
:101800003AAF599F788F8891A981CAB1EBA10CD1C9
:101810002DC14EF16FE18010A100C230E3200450D1
:10182000254046706760B9839893FBA3DAB33DC344
:101830001CD37FE35EF3B1029012F322D232354221
:10184000145277625672EAB5CBA5A89589856EF5D4
:101850004FE52CD50DC5E234C324A0148104667471
:10186000476424540544DBA7FAB79987B8975FE724
:101870007EF71DC73CD7D326F2369106B0165766C1
:101880007676154634564CD96DC90EF92FE9C899AC
:10189000E9898AB9ABA94458654806782768C01811
:1018A000E1088238A3287DCB5CDB3FEB1EFBF98B84
:1018B000D89BBBAB9ABB754A545A376A167AF10A61
:1018C000D01AB32A923A2EFD0FED6CDD4DCDAABD94
:1018D0008BADE89DC98D267C076C645C454CA23CB1
:1018E000832CE01CC10C1FEF3EFF5DCF7CDF9BAF64
:1018F000BABFD98FF89F176E367E554E745E932E01
:10190000B23ED10EF01E00000000000001140000E5
:1019100009024300020100803209040000010202B2
:101920000000052400100104240200052406000123
:101930000524010001070583030800FF09040100D5
:10194000020A0000000705810240000007050202AC
:101950004000000000C20100000008006900000013
:0819600041000000000000003E
:10200000008000200D380000F5370000F537000093
:1020100000000000000000000000000000000000C0
:10202000000000000000000000000000F537000084
:102030000000000000000000F537000061380000DB
:10204000F5370000F5370000F5370000F5370000E0
:10205000F5370000F5370000F5370000F9370000CC
:10206000F537000029300000393000004930000009
:10207000F5370000F537000059300000F537000053
:10208000F5370000F5370000F5370000F5370000A0
:1020900000000000F5370000F5370000F5370000BC
:1020A000F5370000F5370000F5370000F537000080
:1020B0000000000010B5064C2378002B07D1054B1B
:1020C000002B02D0044800E000BF0123237010BDA4
:1020D000B0000020000000001C720000044B10B58E
:1020E000002B03D00349044800E000BF10BDC046E8
:1020F00000000000B40000201C72000010B5064A69
:10210000002303F01DFB054C206001F0B7FB2368A2
:102110001818034B186010BD40420F00D00000207B
:10212000D4000020F8B500250723EC10E4002B4074
:102130001F4FE418A400E659002E04D1012004F03A
:102140007FFBE05106700135382DEDD10023194E8B
:10215000194C70689A0012191168002902D15900AF
:10216000411811600133202BF4D100250723EC1016
:102170002B40E400E418114BA400E758002F05D1D0
:10218000012004F05DFB0D4B0770E0500135382D48
:10219000ECD1002370690A4C9A00121911680029C9
:1021A00002D15900411811600133202BF4D1F8BD40
:1021B0004C13002028010020E011002060120020B4
:1021C0006011002010B500F0EBFE00F06FFC00F095
:1021D00010FF0023FF2010495A1814781F2C00D13B
:1021E00010700133112BF7D196211F2289010B4862
:1021F00000F02CF901220A4B1A7038231F32190003
:10220000100000F0B5F8FFF78DFF064B186859680D
:10221000FFF774FF10BDC046080000204C010020ED
:102220002801002000000020F8B500240725220026
:10223000E310DB002A40334F9B189B00DB59002B37
:1022400007D01A78A0B2531E9A410021D2B200F0F2
:10225000E3F80134382CEAD100232B4E71682B4867
:102260009A008258002A02D010885A0088520133FE
:10227000202BF4D1002407252200E3102A40DB00A4
:102280009B18234A9B009B58002B07D01A78A0B2BA
:10229000531E9A410121D2B200F0BEF80134382C0D
:1022A000EAD1002371691B489A008258002A02D0A3
:1022B00014885A008C520133202BF5D100F0F2FB28
:1022C00000250723EC102B40E400E418A4003B5940
:1022D000002B05D0A8B2002100F08CF83B591870F3
:1022E0000135382DEDD10023716808489A008258D5
:1022F000002A02D05800085A10800133202BF4D154
:10230000F8BDC0464C13002028010020E011002039
:10231000601200206011002010B5FFF785FF01F06A
:10232000ADFA074B1C68A04205D201F0A7FA201AAB
:102330006328F4D9F1E7034A10680019186010BD4A
:10234000D4000020D000002010B500F037FEFFF7C9
:102350006BFF064B1868421C1A6000F0ABFB00F0E4
:1023600047FE00F047FEFFF7D7FF10BDCC0000206E
:10237000F7B517006A4601901D4C1279217422723C
:10238000621C2776D377CE084A0700D00136DD08D5
:102390005B0700D00135300004F052FAE0600028FD
:1023A00001D10020FEBD3200002104F066FA019B3D
:1023B000580004F045FA60600028F2D0019A00212C
:1023C00004F05BFA280004F03BFAE0610028E8D052
:1023D0002A00002104F051FA780004F031FA60611B
:1023E0000028DED03A00002104F047FA0120D9E7A6
:1023F000280100200723C2080340D2B20548002963
:1024000005D1C168885C1841012318407047C16933
:10241000F8E7C04628010020072310B5C40818407B
:10242000063B8340E4B2DBB20748002907D1C0680D
:1024300000190178002A04D00B43037010BDC06955
:10244000F6E799430170F9E728010020164B70B5B3
:102450001860164B14001A7003680D00DB6998476A
:10246000002C08DBE4B20121200001F0EBFB00218D
:10247000200001F033FC96230D4CDB019D420DDD65
:102480000C4B2380208804F053F900220A4B03F000
:102490005FFB03F075F9094B188070BD29000848EF
:1024A00003F024F82080EDE71C0100202401002027
:1024B00020010020EE02000000000C40220100205C
:1024C00020C5FB000322054B80381A80044A054BC7
:1024D000127858701A7099707047C0461801002021
:1024E00028010020D8000020F8B54B1E7C2B04D911
:1024F00003210800FFF7E6FFF8BD164C4318227AC7
:10250000934202DD02210320F4E74B000333124A19
:102510009BB213800125402B06D800260F4AAB4200
:1025200004DD56550135FAE70421ECE7033B9370CF
:1025300063680325400018180023094F55700139BE
:1025400089B2B942D8D0C55AD4182E12E670257176
:102550000233F4E72801002018010020D8000020F1
:10256000FFFF000010B5064B1A7A824204DC0221FC
:102570000620FFF7A7FF10BD5B684000C152FAE7D5
:1025800028010020F8B54B1E7A2B02D84B009A4246
:1025900004D003211020FFF795FFF8BD114C0B1854
:1025A000227A934201DD0221F4E706220E4B646891
:1025B0001A8010230D4A0E4E53700312937000239D
:1025C000D0704000137151712018013989B2B142A5
:1025D000E3D0D718FD793C7A2D022C43C452023344
:1025E000F3E7C0462801002018010020D800002091
:1025F000FFFF0000F7B54B1E264A9BB20C0000906F
:102600000321934206D8244A009B127C1B19934253
:1026100004DD02210120FFF755FFF7BDE3081F4A43
:1026200061070CD10333138013880120402B08D895
:1026300000211B4A834206DD11540130FAE70433BE
:10264000F1E70421E7E7002601213500033B144FA1
:10265000517093700191009B00219819FF2318403D
:10266000FFF7C8FE0199F210A940013C0332A4B261
:10267000C9B2BB5C00280AD00B430135EDB2BB5494
:10268000082D00D100250136002CE4D1C5E78B438D
:10269000F3E7C046CF070000280100201801002002
:1026A000D8000020F7B54B1E264A9BB20C000190C3
:1026B000032193421FD8244A019B0132D27F1B1968
:1026C000934204DD02210800FFF7FCFEF7BDE3089A
:1026D0001E4A61070CD10333138013880122402B5B
:1026E00008D800201A49934207DD88540132FAE7DE
:1026F0000433F1E704210220E6E700260222350038
:10270000033B134F4A708B70019B0121981980B2D3
:10271000FFF770FE0121A940F210013C0332A4B280
:10272000C9B2BB5C00280AD00B430135EDB2BB54E3
:10273000082D00D100250136002CE5D1C6E78B43DA
:10274000F3E7C046CF070000280100201801002051
:10275000D8000020F8B54B1E7C2B04D9032104209F
:10276000FFF7B0FEF8BD164C4318227E934201DD00
:102770000221F4E74B000333124A9BB21380012578
:10278000402B06D80026104AAB4205DD56550135D0
:10279000FAE704210800E3E7033B9370636904252B
:1027A000400018180023094F5570013989B2B94209
:1027B000D8D0C55AD4182E12E67025710233F4E72A
:1027C0002801002018010020D8000020FFFF000091
:1027D000FF2310B51B02994206D0002904D0032123
:1027E0000520FFF76FFE10BD074B1B7C834201DC09
:1027F0000221F5E7054BC9184A424A410021D2B2ED
:10280000FFF70AFEEFE7C046280100200001FFFFA6
:10281000F7B50C00CB080190DBB2610701D00133A2
:10282000DBB2611E1D4889B2814201D8934204D0B7
:1028300003210F20FFF746FEF7BD194A019B127CCA
:10284000E318934201DD0221F3E70622154B00272E
:102850001A800F23144E3D007370019B74711B127C
:10286000B3706B461B79F37023123371FB10F318AE
:10287000DA7901232A411A40019B0135D819013C1C
:1028800080B20021EDB2A4B2FFF7C6FD082D00D141
:1028900000250137002CE9D1CEE7C046AF07000084
:1028A0002801002018010020D800002010B51F4A80
:1028B0009378D1781B020B4311795079547809022F
:1028C0000143601E0F282BD802F07CFD15190C1D4A
:1028D00021082A2A2A2A2A2A2A2A25101800FFF73C
:1028E00041FE10BD1800FFF7FFFDFAE792791800CE
:1028F000FFF748FEF5E71800FFF77CFEF1E7180048
:10290000FFF7D0FEEDE71800FFF724FFE9E7180016
:10291000FFF75EFFE5E792791800FFF779FFE0E740
:10292000A0B20121FFF7CEFDDBE7C046D8000020B2
:10293000F0B50D4C0D4E22780121D243D2B2B35CDA
:102940000B4DDB43A85C0B4ADBB21788023F8F427A
:1029500006DD625C01315A40B35C4340A85CF6E797
:102960001B021843F0BDC046D8000020486A000092
:10297000486B0000180100200023F7B5424C434D7E
:1029800020682B8003681B699847002821D02068A5
:1029900003681B6998472B88984209DD2068036803
:1029A0001B6998473A4B2880188800F0C1FFEEE772
:1029B000206803681B699847402806DC20680027C8
:1029C00003681B699847052804DC20680368DB68F6
:1029D0009847F7BD2B882F4E0193BB4207D920683B
:1029E00003685B699847F0550137BFB2F2E7FFF71C
:1029F0009FFF019BF3189A1E1278013B1B7812026D
:102A000013438342E1D1244B32781B789A42DCD1C4
:102A1000019B023B2B80FFF749FF2B883E2B03D9FC
:102A200070780421FFF74EFD2F880237BFB22F8048
:102A3000FFF77EFFF719BB1E0212013F1A703870B4
:102A40000020164F3856002807DBC0B2012101F0E4
:102A500045F9134B188800F06BFF20682A8803683B
:102A600031005B68984720680368DB6898470C4B27
:102A7000188800F05DFF002038560028A9DBC0B29E
:102A8000002101F02BF9A4E71C010020180100200F
:102A900020010020D800002028010020240100206F
:102AA0002201002010B5FFF767FF10BD10B500F040
:102AB0005FFA10BD10B500F067FA10BD43680E490B
:102AC00002688B4203DB002A06DD002B04DA013AA0
:102AD00002600A4A9B1843604368084902688B42B7
:102AE00003DC002A06DA002B04DD01320260024A10
:102AF0009B1843607047C046003665C400CA9A3BC5
:102B000008B483B007AB049801930699039A059B18
:102B1000401A9A4200D0D01A431E1843C00F431ED9
:102B2000984103B001B070470023012230B54C1E1C
:102B3000A14101240370825689000A434270427900
:102B400004710A434271C27984710A43C271427AA4
:102B500003720A434272027DC3600A430275427ED9
:102B600003610A430376C36103624276451DEA7F2F
:102B70000A43EA7702002832137024352A780A4380
:102B80002A7002002A321370AA780A43AA70C3621C
:102B90000363EA7A0A43EA728363C363EA7D0A4302
:102BA000EA7502004432557814700D435570D5789B
:102BB00094700D43D570557913710D435571C364ED
:102BC0000365157C13750D431574557D0D435575BF
:102BD0000500C36503664535EA7F05350A43AA76D5
:102BE00002004932D377EA7F02350A436A7702004E
:102BF0004B32D377EA7F0A43EA77C3662835036707
:102C00002A780A432A7002008367C36780321378E8
:102C10000B431370C8239380AA7C0A43AA74020052
:102C200088321380AA7D0A43AA7502008C32138071
:102C300093780B439370030090331C7091300378AA
:102C40001943017030BD00000223F0B542798DB008
:102C500004001A4201D101220271627A1A4203D1A0
:102C600023785A42534123720222237D134002D11A
:102C7000E360BC4B23610222E37913402279002AEE
:102C800031D1002B00D1A3712300250045330493DB
:102C90001B7844359B0701D4A3792B702600493655
:102CA00033789B0703D42300227E48331A70230015
:102CB000022254331B78134002D1E364A94B2365ED
:102CC0000222EB7813402A78002A00D0A7E0002BDC
:102CD00000D1AB7063789B0703D4230058331B7873
:102CE00023700DB0F0BD002B01D10133A37123007F
:102CF00034331B789B0704D423009B4A2C3303CA2C
:102D000003C39A4AA16A237A022511421BD1002BE0
:102D10001BD0230029331B782B4203D1230001222F
:102D200028331A700223627E1A4000D122762200D4
:102D3000403212781A421BD12300220038332C3241
:102D400003CA03C314E0002B1DD1631DDB7F1D40AC
:102D500001D1E56125620222617E114000D1217618
:102D6000230029331B78134002D12200283213702C
:102D700023002B331B789B0700D585E72300227A9D
:102D80002A331A7080E7260000272836F757012FCC
:102D9000EED1A26BE3680AA89B180A93E26B236941
:102DA0009B180B93FFF78AFE0AA9082206A803F0D6
:102DB0005BFD230001AA2C3303CB03C2079B2A002F
:102DC00000930021069B3800FFF79AFE631D002840
:102DD00012D02200293212782A4200D13570627E48
:102DE000920701D401222276DB7F9B07C0D4230007
:102DF00022001C330C32A3E7DB7F2B42B8D1A26B3D
:102E0000E36A0AA89B1A0A93E26B236B9B1A0B9343
:102E1000FFF754FE0A9BE3610B9B2362A8E7002B9C
:102E200001D10133AB70230074331B789B0704D4AA
:102E300023004D4A6C3303CA03C31F23F356059383
:102E40002F79002B1AD123004B33DB7F002B00D1CD
:102E500084E0002F14D123004A33DB7F9B0701D489
:102E60000123F377230080331B789B0716D42300BC
:102E7000220078336C3203CA03C30FE0002F27D03F
:102E80000222049BDB7F134001D1E365236623000C
:102E900002224A33DB7F134000D1F3776B7D9B071F
:102EA0000BD42A790123002A06D123004933DB7F82
:102EB0005BB2013B5A4253412B7523004C33DB7FFD
:102EC0009B0700D506E723002A794B33DA7701E721
:102ED000059B012BE2D1A26FE36C0AA89B180A9311
:102EE000E26F236D9B180B93FFF7E8FD0AA90822F8
:102EF00008A803F0B9FC230001AA6C3303CB03C27A
:102F0000099B022200933900089B0598FFF7F8FD02
:102F1000022300280ED022004A32D27F1A4200D16A
:102F2000F377049BDB7F9B07B8D4230022005C333C
:102F30004C32A0E7049AD27F1A42AFD1A26FE36E5F
:102F40000AA89B1A0A93E26F236F9B1A0B93FFF751
:102F5000B5FD0A9BE3650B9B23669FE7002F9DD081
:102F60008EE7C0460065CD1D40130020FF00FF0026
:102F7000002110B5024B03481970FFF7D5FD10BDB5
:102F80005C110020C8100020012210B5024B03483C
:102F90001A70FFF759FE10BD5C110020C810002008
:102FA00010B50024044B0021E05C013400F04AFE1F
:102FB000112CF7D110BDC0460800002070B50024C8
:102FC00007252200E3102A40DB009B18064A9B00DD
:102FD0009E58002E04D0054BE05C00F0ABFE307034
:102FE0000134112CEDD170BD6012002008000020CA
:102FF00070477047084A094B51681B685B180849BD
:103000008B4201DC5360704706495B1853601368BC
:1030100001331360F7E7C046401300200000002092
:10302000FFC99A3B003665C410B5024800F013FB97
:1030300010BDC0469003002010B5024800F00BFB05
:1030400010BDC046D405002010B5024800F003FBB7
:1030500010BDC0461808002010B5024800F0FBFA69
:1030600010BDC0464C010020F7B5012403251E4FBA
:103070001E49380000F058F81D491E4800F054F869
:103080001D491E4800F050F81D491E4800F04CF83C
:103090001D491E4800F048F81D4E1E49300000F042
:1030A00043F8390000952300019400221A4800F0EB
:1030B0004BFA31000026009501942323242217485F
:1030C00000F042FA009601940A230B2209491448A1
:1030D00000F03AFA01962A000094042307491148A7
:1030E00000F032FAF7BDC0465C0A0020000800423A
:1030F000000C0042640A0020001000426C0A00200C
:1031000000140042740A0020001800427C0A0020CB
:10311000840A0020001C0042900300204C01002083
:10312000D4050020180800200023037101607047B7
:103130009446F0B59E1E721E96416246056892073F
:103140002F6836063A4332432A60072505AC2478B7
:103150000068A4012940214342680024022B00D0CA
:103160005C03114321434160F0BD30B5C0250368C5
:10317000AD031C6812052A402243C0240904A4029E
:1031800021401143196003685A6814435C6030BDE4
:103190000123026811680B43136003681A68D207A1
:1031A000FCD4DA69D207F9D47047022302681168A7
:1031B0000B4313600268D3699B07FCD47047026815
:1031C000137E9B0702D40379002BF9D100230371EE
:1031D0007047002203685A8370470368187E4007CF
:1031E000C00F70470368187EC009704780230268CB
:1031F0005B42117E0B43137670470368588B800740
:10320000C00F704702230268518B0B4353837047F2
:103210000368187EC007C00F70470368188DC0B2DE
:10322000704703681A7ED207FCD589B2198501233D
:10323000037118007047012203689A7570470122D4
:1032400003681A75704700000368214A30B593423D
:103250002FD0204A93422FD01F4A93422FD01F4A8B
:1032600093422FD01E4A93422FD01E4A93421FD121
:103270000E2319220121032599401B48C024016017
:1032800099082B40AB40FC359D4089000918A400EB
:103290000859A843C0259D402B0003430B518023B0
:1032A000DB011A43114B5A805A7852B2002AFBDBD9
:1032B00030BD09231422DDE70A231522DAE70B23A8
:1032C0001622D7E70C231722D4E70D231822D1E7C3
:1032D00000080042000C00420010004200140042AE
:1032E00000180042001C004200E100E0000C004019
:1032F000F8B504000F0016001D00FFF7A5FF200021
:10330000FFF746FF1C21BB000B4071072268090C28
:103310000B431360842322689375012F1AD1102167
:10332000012E00D008390C4B69431868C00002F028
:1033300053F80722216802408B895203DB04DB0C1F
:1033400013438B81226803049089DB0C400B4003FC
:1033500018439081F8BDC0461C0000200120704732
:1033600010B50368014A1B6A984710BD130400009A
:10337000FC30006A704787239B00C018C368802018
:103380004000C01A70470300FC331A6A002A03D0B9
:10339000DB69C018007D704701204042FBE710B593
:1033A00004000069FFF7F4FE22000023FC32936161
:1033B000D361136287229200A4186360A360E36064
:1033C00010BD872310B59B00C218D368002BFCD119
:1033D0000069FFF7F4FE10BD0368002B02D162B64E
:1033E000BFF36F8F7047F0200140303948424841A9
:1033F0007047F0231B011940802306209B0099424F
:103400000AD00133FF330130994205D080230238BE
:103410005B00994200D0002070470F20014000203F
:10342000012903D00239481E8141481C7047000021
:103430008B23F0B5182685B002919B000400C05C78
:10344000330008214343324D1700EB18595600F062
:1034500089FC304B0821E05C33004343EB1859569C
:1034600000F080FC2C4BE25C0393022A09D111335B
:10347000E05CFF2805D008214643AE19715600F0E4
:1034800071FC8C26B600A05DFF2819D0012100F048
:10349000D9FB1822A35D21495A43AB56AD18DB0175
:1034A00058188D21890060501D4901225B188E211A
:1034B0008900635069688A408F21890062501A60D0
:1034C0000122029B11002069FFF712FF3900200042
:1034D000FFF78FFF390005002000FFF79EFF39003E
:1034E00006002000FFF77FFF3300009029002069CD
:1034F0000122FFF71DFE0B4B2069E25C039BE15CA0
:10350000FFF733FE2069FFF750FE05B0F0BDC0465F
:10351000486C00002D0200002F02000018440041FA
:10352000144400412E020000802210B50400520015
:10353000002103F0A2F923000022FC335A6020008E
:103540009A60DA6010BD0000F7B51D0008AB1B786B
:103550000400009309AB1B7816000193002343601D
:10356000FA239B008360114B0F0008330360143073
:10357000FFF7DAFF20002130FF30FFF7D5FF8B2364
:103580006A469B002761E654094B1278E554094BC3
:103590002000E2546A46084B1279E2548C22313BF7
:1035A000FF3B9200A3541032A354FEBDF8700000FC
:1035B0002D0200002E0200002F020000F7B5EFF3ED
:1035C000108300930123019372B680260200FF2529
:1035D000019BFC327600013B5C1C0FD0D4685F1E5F
:1035E000B44209D054680155546801342C405460E9
:1035F000D4680134D460EEE73B00EDE76846019300
:10360000FFF7EAFEF7BD13B5EFF310830093012334
:10361000019372B6019B5A1E0192002B15D0030034
:10362000FC33DA68002A0DD09A68845C9A6801320B
:10363000D2B29A60DA68013ADA606846FFF7CCFEE7
:10364000200016BD01246442F7E701246846FFF715
:10365000C3FE6442F4E710B504000069FFF7CDFD36
:10366000002805D02069FFF7D8FD2069FFF7CAFDC3
:103670002069FFF7B2FD00281BD02069FFF7CDFDC0
:10368000010020001430FFF799FF8C239B00E35CBE
:10369000FF2B0ED02300FC331A6A80235B009B1A99
:1036A000092B06DC8D238F229B009200E358A25841
:1036B0001A602069FFF7ACFD00280ED087239B001D
:1036C000E318DB68002B14D020002130FF30FFF717
:1036D0009AFFC1B22069FFF7A4FD2069FFF782FDC0
:1036E000002805D02069FFF781FD2069FFF771FDF3
:1036F00010BD2069FFF7A3FDEFE70000F8B5040057
:1037000000690D00FFF784FD87239B00E618002861
:1037100002D0F368002B34D001278022F3685200D6
:10372000934223D1EFF310833B4210D1174B5B68D8
:10373000DB05DB0DF1D0103B5BB2002B10DAF13A68
:103740001340083B9B08124A9B009B181B6820698A
:10375000FFF75EFD0028E0D02000FFF77CFFDCE7EC
:103760009B08C0330B4A9B009B58F0E72000213098
:10377000FF302900FFF722FF2069FFF75CFD0120E1
:10378000F8BD29002069FFF74CFDF8E700ED00E0E7
:103790001CED00E000E100E010B504001430FFF77C
:1037A00032FF8C239B00E35CFF2B0ED02300FC3305
:1037B0001A6A80235B009B1A0A2B06DD8E238F2258
:1037C0009B009200E358A2581A6010BDF7B506009E
:1037D0000D000C008B180193019B671B9C4207D0C6
:1037E000336821781B683000984701340028F3D1F2
:1037F0003800FEBDFEE70000034B10B51B68002B30
:1038000000D0984710BDC0468C0A002070B50F4903
:103810000F4CA14204D100F0BBF800F099F8FEE78C
:103820000C4D00238D42F6D0CA18E818A24205D3E9
:10383000094B8242EFD00949002204E000680433BA
:103840001060F1E704C38B42FCD3E4E700000020E2
:10385000B000002028720000B000002030140020CA
:1038600010B500F071F8002801D100F057F810BD34
:10387000014B18607047C0468C0A0020014B186845
:103880007047C046900A0020F7B5134801228446CD
:103890001249134C8E68636805689B0E13400192B1
:1038A00088686268019F920E3A4067463F6893427B
:1038B0000ED1BD420CD186420AD35B19FA25486865
:1038C000AD00861B07486B437043000DC018FEBD5A
:1038D0003D0013000600E3E7900A002010E000E03E
:1038E00000ED00E05555000070B5041E10D0FFF744
:1038F000CBFF050000F027F8FFF7C6FF054B401B84
:103900009842F7D9FA23013C9B00ED18002CF3D123
:1039100070BDC046E70300007047000010B5034AC1
:1039200013680133136000F08FFA10BD900A002075
:1039300010B5002806D030230321584301F04CFD78
:103940000138FDD110BD704700207047704700005E
:1039500010B500F0CDF802F04FFFFFF7F7FF0120A0
:10396000FFF7C2FF084C200001F0EAF9200000F048
:10397000EFFBFEF727FCFEF7E7FC044B002BFAD029
:1039800000E000BFF7E7C046BC0A002000000000CE
:103990001E2270B546484749436893431C3A134377
:1039A000436008238C6923438B61434C434B9C82C7
:1039B0009C8A14439C82DC681442FCD00124404A57
:1039C00014701578254203D055786DB2002DF8DBC0
:1039D00001249460547864B2002CFBDB394C5460B1
:1039E000547864B2002CFBDB8224E40154805478C8
:1039F00064B2002CFBDB02249C840E34DD6825427B
:103A0000FCD0314CDC621024DD682542FCD09D8C5A
:103A10002E4C2C439C841024DD682542FCD00224CB
:103A20009D8C80262C439C844024DD683542FCD04C
:103A3000DD682542F9D01024DD682542FCD0002441
:103A40009460547864B2002CFBDB214C54605478B1
:103A500064B2002CFBDB1C6A1E4D2C4080251C62CE
:103A60001C6AAC431C62032393601B4B5360537866
:103A70005BB2002BFBDB0023FF240B72174A4B7257
:103A80008B72CB72164B1A60164B174A1B68116863
:103A90009A065B01C90E2340520F12020B431343D7
:103AA000124A1385802342681343436070BDC046A9
:103AB00000400041000400400C06000000080040E7
:103AC000000C004001050100B905FF7D040A00005B
:103AD00000070300FFFCFFFF03060100006CDC028F
:103AE0001C00002024608000206080000040004214
:103AF000FA21314B10B51868890001F06DFC2F4B8D
:103B00000138984256D82E492E4A4860C020136A80
:103B100000061B021B0A03431362002407238C6068
:103B20000B608021136A09061B021B0A0B431362F8
:103B3000FC22254B196A0A431A62FC22196A920177
:103B40000A431A62A022196AD2020A431A62E0B238
:103B50000021013400F076F8142CF8D11B4B1C0026
:103B60005A7852B2002AFBDB194A5A80194B1A00C4
:103B7000597EC9090129FBD0E421C90099803F2160
:103B8000D970537EDB09012BFBD0C02300205B01E1
:103B90001361907000F024F863785BB2002BFBDBBC
:103BA0000D4B0E4A6380D379DB09012BFBD04123F7
:103BB000537010BDFEE7C0461C000020FFFFFF0051
:103BC00010E000E000ED00E000040040000C0040C8
:103BD0001E4000000040004221400000004800421A
:103BE000164A00B51300517EC9090129FBD00138DE
:103BF000042816D81969124A0A400F211A615A7806
:103C00008A4301F0DFFB0308060B030011000122C9
:103C10000A435A7000BD11000322F9E71100022285
:103C2000F6E7F02311691B050B430F21136153784D
:103C30008B43190002230B435370EBE70040004213
:103C4000FFFFFFF0182330B51D0004004543082096
:103C5000204A55192856013014D0032912D80800DB
:103C60006343D156D31801F0ADFB02280E1B5868F0
:103C7000CB010221184A9B181A18403211700122F8
:103C800082405A6030BD5868CB010621124A9B1809
:103C90001A1840321170012282405A609A61F1E78D
:103CA0005868CB0106210C4A9B181A184032117033
:103CB000012282405A605A61E4E75868CB01022130
:103CC000054A9B181A1840321170012282409A60EE
:103CD000D8E7C046486C0000004400411823F0B506
:103CE00008245843114A13181C5701341BD00126CD
:103CF00035005F688356BD400D4ADB019A18906815
:103D000005420BD10C00601E8441D219403210785C
:103D100034400336A400B04320431070044A9B187B
:103D2000002901D15D61F0BD9D61FCE7486C000098
:103D300000440041182310B50824434307490020DC
:103D4000CA181457013408D05B560549DB015B18CB
:103D5000186A5368D8400123184010BD486C000011
:103D60000044004118224243F8B52C4E0300B2181B
:103D7000127A52B2140001320ED0481C00240C28D2
:103D80000AD801F01FFB0720202020202020200B34
:103D90000B0B0B00012464422000F8BD092905D15A
:103DA0000021D8B2FFF74EFF0024F5E70A2902D11F
:103DB000D8B20839F6E700240B29EDD1D8B20A3978
:103DC000FFF740FFE8E718204343F2185568F35621
:103DD0002C00134ADB016E0817389B18C9B2044047
:103DE0009E19002C0DD00F24303632780901224064
:103DF0001143C9B25B19317040331A7810431870FF
:103E0000D2E732000F27303216785B19BE433143B8
:103E1000117040331A7810431870BDE7486C0000E9
:103E20000044004110B50400FFF776FD014B1C6013
:103E300010BDC046200000200122024B52421A60F1
:103E40007047C04620000020164A10B51368591C60
:103E500026D0013B1360002B22D172B6124B134ABD
:103E60000433934213D9124A01211000147D0C42ED
:103E7000FCD02021148BFF319B085B002143118370
:103E8000D3610C4B13800123027D1A42FCD0BFF397
:103E90004F8F094B094ADA60BFF34F8FC046FDE7E9
:103EA00010BDC046200000200020000003020000DA
:103EB0000040004102A5FFFF00ED00E00400FA050C
:103EC000704710B5040001F089F8200010BD000013
:103ED000F0B5822919D1C3B2294D5A01AA189169A6
:103EE000284C80010C40C02189052143916126495D
:103EF000083340187021506128685B011A5C8A43BE
:103F0000110030220A431A54F0BD0029FCD1C0260A
:103F1000C1B21B4C4B01E3189A681A4DB6052A40F2
:103F200032439A60194A800182185A600A000727B2
:103F3000246808325201115DB9430F000121394351
:103F400011559F6910493D4040182E439E615861AC
:103F50007020115D814308001021014311559968BB
:103F60000B48A218084080214903014399609968D1
:103F7000890B89039960402311790B431371C3E7BF
:103F8000740F0020FFFFFF8FE80A0020A80C00201C
:103F9000FF3F00F0EFF3108303600123436072B62C
:103FA000704773B5836D0400002B1BD10600A83643
:103FB00035786846FFF7EEFF019BEDB2013B02D377
:103FC0003578EDB2FAE768460193FFF705FA002D60
:103FD00001D1002076BD2300A4331868A0342368E3
:103FE000C01AF7E76846FFF7D5FF22000025019BBE
:103FF000F432013B02D31578EDB2FAE7684601933B
:10400000FFF7EAF9002DE4D02300F0331868EC3410
:10401000E5E7000010B5436D4468DBB25A01A21811
:1040200091680948083308408021490301439160A1
:1040300091685B01890B890391602268D318402243
:1040400019790A431A7110BDFF3F00F0F7B5436DAF
:104050004268DBB2190004000831106849014118B8
:10406000C979C90711D55B01D21893689B049B0CD1
:104070000CD12000FFF7CEFF63681A68636DDBB2D6
:1040800008335B01D3187F22DA71F7BDE16D002997
:1040900023D12100A4310B6023000125AC33E56559
:1040A00068465360FFF776FF260020002100019B41
:1040B000A836013BF430F5315A1C33D03570027804
:1040C0005F1ED2B20A700A78002A04D12000019340
:1040D000FFF7A0FFE8E73B00EEE72100F0310B60BF
:1040E0000023E3652300603353606846FFF752FF07
:1040F0000125260020002100019BF436013BA83059
:10410000F5315A1C0ED0357002785F1ED2B20A709B
:104110000A78002A04D120000193FFF77BFFE8E72B
:104120003B00EEE768460193FFF756F9A4E737B581
:104130006B46DC1D00230D00237000F039FF2100C9
:1041400000F0C4FE2B681818286020783EBD0000DF
:104150000078002810D00121084B1B681A898A4377
:104160001A810822198B0A431A830422198B0A43E5
:104170001A830022024B1A607047C046740F002059
:104180006C0F002010B50F4A93699B0B9B03936142
:1041900013680222FF331A729879823A02439A71A5
:1041A0001A7A9207FCD57F24074A2140937A0800A7
:1041B000A3431900802301439172917A5B420B4320
:1041C000937210BD740F00200050004110B50C0018
:1041D00000F0EEFE210000F0ACFE002804D1034AFE
:1041E00093699B0B9B03936110BDC046740F002025
:1041F000F8B50D00832A19D1CBB23B4C5A01A21855
:1042000091693A48AD010840C02189050143916197
:10421000374920686D187021083355615B011A5CBD
:104220008A43110040220A431A54F8BD022A55D18C
:10423000304A8B009858002802D003685B69984781
:10424000F82000F0C7FE0400274E2B4B46600360A9
:1042500040220021083002F010FB22000023A0328F
:10426000A3646565E3642365A365E3655360D36474
:104270001372136013654C3213725372FF222B00BA
:104280001340590171188868184F08330740C0203F
:10429000800538438860306807265B01195CAD00F3
:1042A000B1430E000321314319542300616D60684E
:1042B00011404901411860334B60616D63680A40E9
:1042C0001B6852019B180122FF33997A20000A4390
:1042D0009A72FFF79FFE074B5C51A6E7110028007A
:1042E000FFF7F6FDA1E7C046740F0020FFFFFF8F28
:1042F000E80A0020C00A00203471000070B50500F3
:104300000124064BA200D258002A06D02100280022
:104310000134FFF76DFF0A2CF3D170BD940A002021
:104320000B4BCAB20B488901C9185301C318596114
:1043300099690832890B89039961036852019A18B7
:104340000223D3715179823B0B4353717047C046AE
:10435000E80A0020740F0020084B8A00D05810B5DE
:10436000002803D003689B68984710BDC9B2044B6E
:104370004901591888688004800CF6E7C00A0020BB
:10438000740F002010B50C00FFF7E6FF00280CD0DA
:10439000064BE4B21B68083464011C19802362795F
:1043A0005B42134363710223E37110BD740F00205D
:1043B000F0B51C00304B85B01B6807000D00029261
:1043C000002B55D02D4E3178C9B2002902D11920C9
:1043D000FFF784FC64233370294BAA00D0580028CF
:1043E00008D0036822005B68029998470400200007
:1043F00005B0F0BD29003800FFF7AEFF844204D9B4
:1044000029003800FFF7A8FF04000121EBB21D4E80
:1044100003935B010193F21893689B0B9B039360DA
:10442000019A336802989B18FF335A7A0A435A72EA
:10443000154BA901C918220002F016FA002CD6D09B
:1044400029003800FFF788FF0028D0D14021039BC6
:10445000326808335B01D3181879014319710121BF
:10446000D971019BD318FF339A7A0A439A72BEE737
:1044700001246442BBE7C0466C0F0020DC0A002028
:10448000C00A0020740F0020A80C002013B56B4652
:10449000DC1D22000123FFF78BFF012801D12078CA
:1044A00016BD01204042FBE770B5CBB2124A13485B
:1044B0005C0189018918021951609168104D083317
:1044C0000D40802149032943402591609168890B63
:1044D0008903916001685A018A181679354315716C
:1044E00095796D06FCD55B01C918CB79DB07FCD546
:1044F00000198068C0B270BDA80C0020740F0020A5
:10450000FF3F00F070B50D0000211400FFF7CCFF55
:10451000A04200D9200000230349A34203D0CA5C73
:10452000EA540133F9E770BDA80C0020F0B51E0075
:104530003F4B85B01B680F000192002B3FD08023BA
:10454000DB019E423BD83B4C2178C9B2002902D105
:104550001A20FFF7C3FB642300252370364BBA01F2
:10456000D3180293002E2CD0344B1B680393FF23E7
:104570003B401C0000930834039B64011C19A37981
:10458000DB0921D02E4B2F49186800F025FF2E4B58
:104590001721584300F020FF2C4BE279920713D4E7
:1045A000DA5D002A01D10138F7D20122DA55009BE9
:1045B0005A01224B9B189A69920B92039A6101252A
:1045C0006D42280005B0F0BD0022204B3400DA55C2
:1045D0003F2E09D9009B40245A01184B9B1880227A
:1045E000996912060A439A6122000199029802F021
:1045F0003BF9009BA1045A01104B890C9B18029AAD
:104600002D195A619A69361B920B92030A439A61DB
:10461000009B039A08335B01D3180222DA7159799F
:10462000823A0A435A71019B1B1901939AE7C046CB
:104630006C0F0020DD0A0020E80A0020740F002023
:104640001C00002040420F0070110100DF0A002012
:1046500070B50D001C000D4BAE01F61811003000B6
:10466000220002F001F9EDB209496D014D196E61A8
:10467000AB69084A20001340AB61AB69A2049B0BF5
:10468000920C9B031343AB6170BDC046E80A002047
:10469000740F0020FF3F00F0F7B5104B01901B781E
:1046A0000F001500002B0CD10D4B16001C78002CB0
:1046B00009D00C4E0C4834882018641902F0D4F844
:1046C00034802800FEBD002EFBD03A1933000021B3
:1046D0000198FFF7BDFF2418361AF4E7680E002092
:1046E000690F00206A0F0020690E0020F8B50F0046
:1046F00016000024012A26D9100002F0A1F80500B6
:10470000380002F07DF903230222013040002870B6
:104710006B7096420DD9397800290AD0531CDBB250
:104720000137A9549E4203D00232EC54D2B2F0E7D2
:10473000320029000548FFF7AFFF441EA041C4B274
:10474000280002F087F82000F8BDC046BC0A00200F
:10475000F0B50024012685B0184B0F0069461E7085
:1047600005000094FFF7E3FC154B01A90B806A3BA1
:10477000FF3BCB715A330B72009B8C7109334B801A
:104780000E4B4E7108711C703A00092F0FD00D4F5F
:1047900009223E700C4E280000943480FFF77CFF05
:1047A00069462800FFF7C3FC328808493C7028009E
:1047B000FFF772FF012005B0F0BDC046680E002073
:1047C00009020000690F00206A0F0020690E002016
:1047D00070B5CE7892B005000C00022E0BD18B790B
:1047E000C9792C4809021943FFF7B2FF411E8841DD
:1047F000C0B212B070BD00F0DBFB210000F07AFB0C
:10480000002803D0C117081AC00FF2E7012E0ED1FD
:10481000E279A37912021A431F49112A13D8D2B29E
:10482000002A10D02800FFF737FF0120E1E7032E10
:10483000DFD1A378002B08D1E279A37912021A43C1
:104840001649032AEBD90A78ECE7022B08D1E27962
:10485000A379120212491A432800FFF747FFC8E75D
:10486000012B05D1E279A37912021A430D49F3E72E
:10487000032BBED14122010001A801F0FEFF00F090
:1048800097FB01A900F046FBE279A37912021A43D3
:1048900001A9E1E7BC0A002068710000587100001E
:1048A000507100005C710000CBB204495B01C91873
:1048B0008B699B0B9B038B617047C046740F002074
:1048C00037B5050048780C000B2810D800F07AFDA9
:1048D000061B0F2B0F404561494C5A5D097801AA10
:1048E000002906D1022311802800FFF7B1FE012024
:1048F0003EBD00231380284B1B78012B00D1137081
:1049000002230021F0E78A780023012A03D101AABB
:104910001380224BF0E7204A1370214A93699B0BC6
:104920009B039361E3E78C78012C06D100211B4B9C
:1049300001AA1C7011702300D6E70120002CD7D1EA
:10494000154B174A187093699B0B9B039361CFE734
:1049500089782800FFF716FCC9E72800FFF738FF21
:10496000C6E701230F4ACCE70B780020DB06BFD156
:104970002800FFF7C3FCA2780A4B0B481A6000F02E
:10498000FFFCCAE70123094ABBE78A78074B1A6094
:10499000C3E70020ACE7C046DE0A0020E60A00209C
:1049A000740F00206C0F002088100020700F002072
:1049B0004A4BF7B51E780500002E00D07EE0484C2B
:1049C00023689A8B12070DD5082231009A83300094
:1049D000FFF77EFA10222368FF33997A0A439A720E
:1049E000404B1E6023689A8B52071FD504229A837E
:1049F0003D4A1378002B0AD01378013BDBB21370C9
:104A00001378002B03D101211A20FFF767F9374AE9
:104A10001378002B0AD01378013BDBB213701378A4
:104A2000002B03D101211920FFF758F92368FF3328
:104A30001A7A920603D52022597A0A435A721A7AB0
:104A4000D20623D569460800294AC0CAC0C0A26858
:104A5000920B9203A2604022587902435A7160235C
:104A60000A7828001A422AD1FFF72AFF2368FF3369
:104A7000002827D08022997952420A439A711A7AE3
:104A8000520603D54022597A0A435A727F260125DD
:104A90002368FF331E722F00236808377F01DB195C
:104AA000DB79002B07D0134BAA00D05800280DD07B
:104AB00003681B6898470135082DECD1F7BDFFF757
:104AC00085FBD3E720210C4A9171D8E729000B48D8
:104AD00000F02CFC2368DF19FE71ECE7690F002061
:104AE000740F00206C0F0020DD0A0020DC0A00207B
:104AF000A80C0020C00A0020FF50004188100020B0
:104B000010B50248FFF754FF10BDC046BC0A002094
:104B100080235B00038000234360073303727047E8
:104B200083000148C0187047940A0020836C402B12
:104B300009D03F22036CC154036C0133134003645A
:104B4000836C013383647047F7B505006846FFF74F
:104B500021FA00264022019B013B02D32E6D961BB9
:104B6000FAE768460193FEF737FCAB6D6846002B09
:104B70004FD1FFF70FFA2900019BA831013B5A1CC6
:104B80000CD00C785A1EE4B2002C05D16846019373
:104B9000FEF722FC2000FEBD1300F0E768460193FB
:104BA0000024FEF719FC2A002900A0321368A43162
:104BB000B4420ED0086898420BD92800591CEB1853
:104BC0001160603319780830C9B2FFF7AFFF0134C4
:104BD000E9E709689942DDD1002313600133AB6531
:104BE0006846FFF7D7F92F002A000021019BA8375C
:104BF000013BF532581CC9D0397010785E1E002870
:104C000005D0117028000193FFF704FAEBE7330099
:104C1000F0E7FFF7BFF92900019BF431013B5A1C73
:104C200006D00C785A1EE4B2002CAFD01300F6E781
:104C3000684601930024FEF7CFFB2A002900EC32DE
:104C40001368F031B44202D0086898421DD8096850
:104C500099429FD1002368461360AB65FFF79AF92C
:104C60002F002A000021019BF437013BF532581C2C
:104C700000D18BE7397010785E1E002811D01170BA
:104C800028000193FFF7C6F9EAE72800591CEB1842
:104C90001160AC3319780830C9B2FFF747FF01340F
:104CA000CBE73300E3E710B50400FFF74DFF206DBD
:104CB00010BD10B50400FFF747FF236D002B03D094
:104CC000E36CE418207A10BD01204042FBE7F7B501
:104CD00017000E000400FFF737FF6846FFF75AF988
:104CE0003F2200259446019B013B5A1C19D0BD422E
:104CF00015D2226D002A12D00121226D4942002ACC
:104D00000AD06046E26CA218117AE26C01320240CD
:104D1000E264226D013A226571550135E7E7013BF6
:104D2000E3E768460193FEF757FB2800FEBD00004D
:104D3000014B024A1A607047740F00200050004176
:104D4000F7B50024514B012105001A201C70FEF715
:104D500079FF01211A20FEF7C1FF4D4B01211920D7
:104D60001C70FEF76FFF01211920FEF7B7FF20230B
:104D7000484A0F20D1690B43D361012246490B7881
:104D800013430B70454B19788143197006211C7829
:104D90002143197042490C7822430A701A78024064
:104DA0001A70602219780A431A703E4B3E4A5A80A4
:104DB0005F78FF09FCD13D48FEF75AFD01233C4CCA
:104DC0003C4E2268300011780B431370802239006A
:104DD000520001F052FD22689378DB07FCD4566242
:104DE0001F26354B1B68590B980C9B0131403040F6
:104DF0005B0FB14200D105211F2800D10238072BDB
:104E000000D1043B31408901178D01912B4930407D
:104E10000F40019939431185118D0700B1430800F6
:104E200038431085118D1803254B7F260B40034313
:104E30000C2013850823D17881430B430321D370C1
:104E40002268D3788B4301390B43D37022681378DF
:104E5000334013700423226816783343137022689A
:104E6000C1241389A40083431648138103591B02EC
:104E70001B0A03518023036013781348194301234D
:104E800011702B70002100F0EBF8F7BDDD0A002057
:104E9000DC0A002000040040584400413C4400412A
:104EA00059440041000C004006400000014B000046
:104EB000740F0020780F0020246080003FF8FFFF6F
:104EC000FF8FFFFF00E100E08810002070B50E00AA
:104ED00000254468002C0BD0236831005B6820005B
:104EE0009847002802DB2D18E468F3E701256D429E
:104EF000280070BD70B50D004468002C08D02368F0
:104F000029009B6820009847002802D1E468F4E754
:104F1000200070BD70B50D004468002C07D02368D8
:104F200029002000DB689847E4682D18F5E72C700D
:104F300070BD70B50D004468002C08D023682900AE
:104F40001B6820009847002802D1E468F4E720009D
:104F500070BDF8B542788B790D00017A9B1804007A
:104F600000208B4222DC6368834219D165600026F1
:104F700023786A71EA792B719B182370AB79B3425D
:104F800013D9AB68B7006078DF19FFF7C9FD3B683C
:104F9000013603606378F6B201336370EEE70B000D
:104FA000D9680029FBD1DD60E1E70120F8BD0000F0
:104FB00070B50126054D064C2B68334203D1200005
:104FC000FFF7A6FD2E60200070BDC04678100020BF
:104FD0007C10002010B501F033FC10BD10B501F0BD
:104FE00039FC10BD0020704770B50F26CB1D01396C
:104FF00002003240D5B22C0000093034092A00DD0D
:1050000007341C70013B8B42F2D170BD10B50C000F
:105010000B4B1868FFF7E8FF21000A4B08311868AE
:10502000FFF7E2FF2100084B10311868FFF7DCFFA3
:105030002100064B18311868FFF7D6FF202010BD5D
:105040000CA0800040A0800044A0800048A0800008
:1050500008B4024B9C46103808BC60470D50000055
:10506000704770473F20704713B56B460268D9718F
:105070000733546819000122A04716BD70B50A26EF
:105080000B7892B06E44023305000B703C22002175
:10509000300001F0F2FB394801AC06903848242179
:1050A0000790062020776846364AA1742281364A46
:1050B000364BA281FD3AFF3A8018C1776846233902
:1050C0000630C17768460730C17702A8C17707204C
:1050D000F277032608316944C87703A9CE771021F7
:1050E0002B366E443170092621851F3169440E70BC
:1050F0000CA9053E0E7033212380022369440B70F6
:1051000006360DA90E7022493536A1863B216E4424
:10511000307010A86274E27702703D3269446A44CC
:105120000B70137040210022E37023716371A3732D
:1051300041336B44218719705A702B7DC039A3709D
:10514000A37263770133DBB2A3776A7D0B200D0076
:1051500068441543C5773120684403703A23501CD6
:105160006B441870412302320A436B441A702100C9
:1051700042220848FFF790FA12B070BD10010424D3
:10518000020605240904000001020000080B0000CB
:1051900007050000BC0A002008B4024B9C461038EA
:1051A00008BC60477D50000070B5027D0B790C0093
:1051B00000259A420BD10B784E78A12B09D1212ED4
:1051C00005D107221B491C48FFF766FA0135280064
:1051D00070BD212BFBD1202E22D107221549164864
:1051E000FFF790F99622134BD200196891421DD116
:1051F000DB79DB071AD4FA20FEF714FE00210E48F3
:10520000FFF752FB0125232EE1D1E378A2781B02A0
:1052100013430A4A002108481360FFF745FBD6E70D
:10522000222EEFD18A78034BDA71DBE7FEF704FE1A
:10523000E4E7C04628000020BC0A0020240000202B
:1052400008B4024B9C46103808BC6047A9510000C6
:1052500010B508220021024801F00FFB10BDC04626
:105260002800002010B5417D006A0131FFF774F875
:10527000034B1B6801335A1E9341181810BDC046DA
:105280003000002010B5417D006A0231FFF77AF846
:1052900010BD10B5417D006A0231FFF741F810BD25
:1052A00070B50D00417D0400130002312A00006A30
:1052B000FFF73CF9002801D10123636070BD0000B5
:1052C00010B5054C23685A1C04D103685B699847E4
:1052D00003002060180010BD30000020074A0300C2
:1052E000106810B5411C03D001235B42136010BD50
:1052F000597D186A0131FFF7C9F8F8E7300000203E
:1053000010B5FEF7BBFAF423FF330024984207D907
:10531000044B0A20DC79631E9C41E4B2FEF7E4FAF8
:10532000200010BD280000200020704770470000BA
:10533000FA239B0010B583600F4B0022C382030049
:10534000283383610D4B04004260C2611800503362
:1053500023610830631D21622060DA778323A36212
:10536000813BE36280332363FFF722FE210010318B
:10537000FFF7EFFD200010BD030200007C7100006C
:10538000022110B5094B1A68437D5B01D318FF3326
:105390009C7A21439972437D0133DBB25B01D318C0
:1053A0000122FF33997A0A439A7210BD740F0020CC
:1053B00010B502490248FFF7BBFF10BDBC0A002030
:1053C0008810002002B4714649084900095C490070
:1053D0008E4402BC7047C046002243088B4274D3FF
:1053E00003098B425FD3030A8B4244D3030B8B42E6
:1053F00028D3030C8B420DD3FF22090212BA030CEF
:105400008B4202D31212090265D0030B8B4219D3CF
:1054100000E0090AC30B8B4201D3CB03C01A5241EF
:10542000830B8B4201D38B03C01A5241430B8B4237
:1054300001D34B03C01A5241030B8B4201D30B0320
:10544000C01A5241C30A8B4201D3CB02C01A524147
:10545000830A8B4201D38B02C01A5241430A8B420A
:1054600001D34B02C01A5241030A8B4201D30B02F3
:10547000C01A5241CDD2C3098B4201D3CB01C01A0D
:10548000524183098B4201D38B01C01A5241430917
:105490008B4201D34B01C01A524103098B4201D305
:1054A0000B01C01A5241C3088B4201D3CB00C01A72
:1054B000524183088B4201D38B00C01A52414308EA
:1054C0008B4201D34B00C01A5241411A00D201460F
:1054D000524110467047FFE701B5002000F0F0F898
:1054E00002BDC0460029F7D076E7704703460B435C
:1054F0007FD4002243088B4274D303098B425FD3CD
:10550000030A8B4244D3030B8B4228D3030C8B42F8
:105510000DD3FF22090212BA030C8B4202D31212DE
:10552000090265D0030B8B4219D300E0090AC30BB3
:105530008B4201D3CB03C01A5241830B8B4201D360
:105540008B03C01A5241430B8B4201D34B03C01A49
:105550005241030B8B4201D30B03C01A5241C30AC1
:105560008B4201D3CB02C01A5241830A8B4201D332
:105570008B02C01A5241430A8B4201D34B02C01A1C
:105580005241030A8B4201D30B02C01A5241CDD2C1
:10559000C3098B4201D3CB01C01A524183098B420C
:1055A00001D38B01C01A524143098B4201D34B01F5
:1055B000C01A524103098B4201D30B01C01A524158
:1055C000C3088B4201D3CB00C01A524183088B42DF
:1055D00001D38B00C01A524143088B4201D34B00C8
:1055E000C01A5241411A00D201465241104670473A
:1055F0005DE0CA0F00D04942031000D3404253403F
:1056000000229C4603098B422DD3030A8B4212D3FE
:10561000FC22890112BA030A8B420CD38901921130
:105620008B4208D3890192118B4204D389013AD06D
:10563000921100E08909C3098B4201D3CB01C01A42
:10564000524183098B4201D38B01C01A5241430955
:105650008B4201D34B01C01A524103098B4201D343
:105660000B01C01A5241C3088B4201D3CB00C01AB0
:10567000524183088B4201D38B00C01A5241D9D2C8
:1056800043088B4201D34B00C01A5241411A00D249
:105690000146634652415B10104601D34042002B45
:1056A00000D54942704763465B1000D3404201B5C4
:1056B000002000F005F802BD0029F8D016E7704779
:1056C0007047C0468446101C62468C46191C6346CF
:1056D00000E0C0461FB500F0D3F9002801D4002136
:1056E000C8421FBD10B500F02BF94042013010BD7B
:1056F00010B500F0C5F9002801DB002010BD012025
:1057000010BDC04610B500F0BBF9002801DD002037
:1057100010BD012010BDC04610B500F04DF90028A5
:1057200001DC002010BD012010BDC04610B500F006
:1057300043F9002801DA002010BD012010BDC04649
:10574000002B11D1002A0FD1002900D1002802D04E
:105750000021C943081C07B4024802A14018029066
:1057600003BDC0465DFFFFFF03B4684601B5029864
:1057700000F024F8019B9E4602B00CBC7047C04666
:1057800070B500220C4B04000D00FFF7CFFF00287E
:1057900004D12000290000F095FF70BD064B0022C7
:1057A0002000290000F046FC00F08CFF80231B063F
:1057B0009C466044F1E7C0460000E041F0B54F462A
:1057C0004646D646C0B5040082B00D0091469846C4
:1057D0008B422FD82CD04146484601F001F82900D1
:1057E0000600200000F0FCFF331A9C46203B9A463E
:1057F00000D576E04B46524693401F004B4662462A
:1058000093401E00AF4228D825D05346A41BBD416B
:10581000002B00DA7BE00022002300920193012399
:10582000524693400193012362469340009318E04F
:105830008242D0D900220023009201930A9B002BC0
:1058400001D01C605D600098019902B01CBC9046BC
:105850009946A246F0BDA342D7D900220023009268
:1058600001936346002BE9D0FB0798464146720836
:105870000A437B0866460EE0AB4201D1A2420CD837
:10588000A41A9D41012024196D410021013E2418D4
:105890004D41002E06D0AB42EED9013E24196D4198
:1058A000002EF8D100980199534600196941002B48
:1058B00023DB2B005246D3402A006446E2401C0002
:1058C00053461500002B2DDB26005746BE40330003
:1058D00026006746BE403200801A9941009001912F
:1058E000ACE7624620239B1A4A46DA406146130021
:1058F00042468A4017001F4380E7624620239B1AD6
:105900002A0066469A402300F3401343D4E76246D8
:10591000202300219B1A0022009101920122DA40EB
:10592000019280E72023624626009B1ADE402F006A
:10593000B0466646B74046463B003343C8E7C046DC
:10594000F0B54F464646D6468446C0B58046194E09
:1059500018030F034D00000B5C0082463F0B6D0DDA
:10596000C90F9146640DDB0F0120B5420AD0B44245
:1059700003D0A54201D157450CD01CBC9046994696
:10598000A246F0BD66463E43F7D1AC42F5D154463F
:105990001443F2D10120C845EFD1994207D0002D20
:1059A000EBD163461F433800471EB841E5E70020AE
:1059B000E3E7C046FF070000F0B54F464646D6462F
:1059C0004D00C0B50E03C90F8A462C491F035C0069
:1059D0008046360B6D0D91463F0B640DDB0F8D42FB
:1059E0001ED08C4216D0002D1ED130438446002C90
:1059F00001D13A4323D06246002A1AD09A4529D0D1
:105A0000514602200139084001381CBC9046994695
:105A1000A246F0BD39001143E5D002204042F4E730
:105A20003043FAD1AC420FD0002C0FD13A43E7D02B
:105A30000CE00122013B934318000130E5E7634687
:105A40000020002BE1D0DBE73A43E6D19A45D7D1DD
:105A5000A542D5DCA54205DBBE42D1D808D0002046
:105A6000BE42D2D250460123013898430130CCE7E0
:105A7000C845C5D80020C845F4D3C6E7FF070000D5
:105A8000F0B54F464646D6464D00C0B50E03C90F89
:105A90008A462E491F035C008046360B6D0D9146E9
:105AA0003F0B640DDB0F8D4218D08C4211D0002DBE
:105AB00018D130438446002C1ED13A431CD1634692
:105AC0000020002B30D05146022001390840013817
:105AD0002AE039001143EAD0022025E03043FBD10F
:105AE000AC4226D0002C26D13A4324D15146022084
:105AF00001390840013817E06246002A0FD09A4564
:105B0000E1D1A54205DBBE42DDD819D00020BE425E
:105B10000AD25046012301389843013004E00122A3
:105B2000013B9343180001301CBC90469946A246A5
:105B3000F0BD3A43D0D19A45C5D1A542C3DCE0E7D8
:105B4000C845C0D80020C845E3D3EDE7FF070000F3
:105B5000F0B55746DE464E464546E0B5834606005C
:105B60000F03480087B092461D003F0B400DCC0F3D
:105B7000002800D16FE0DE4B984238D08023FF0030
:105B80001B041F43730F3B430193DA4B00279946D5
:105B900000239B46F60081442B0369001B0B5246F1
:105BA0009846490DED0F002900D185E0D04B994270
:105BB00000D173E04346DA0080231B0413435246AE
:105BC000CC48520F84461343524600206144D20011
:105BD00089442100694000918C46012149448A464C
:105BE0000F2F00D990E0C449BF00CF59BF465B4694
:105BF0003B43019300D06AE1022308270026814637
:105C00009B46C9E732005846019B61460091022835
:105C100000D175E0032800D1FEE1012800D02CE17D
:105C200000230027002600253F032A0D3F0BB34821
:105C300012053A4302401B051343009A5B00D1074B
:105C40005B080B433000190007B03CBC90469946F6
:105C5000A246AB46F0BD5B463B43019300D12FE12A
:105C6000002F00D1A5E1380000F09CFD03000B3BA4
:105C70001C2B00DD96E11D22D31A5A460100DA40A2
:105C80005E4608398F4013008E403B4301939C4B86
:105C900000271B1A994600239B467DE74146534641
:105CA0000B4393498C46E144002B00D01AE10222B9
:105CB0000220174300228CE7134300D10DE1434635
:105CC000002B00D181E1404600F06CFD02000B3A50
:105CD0001C2A00DD72E10100434608398B409846DA
:105CE0001D239A1A5346D3401A0043461343524683
:105CF0008A404946081A824989468144002068E75B
:105D00007B4B002700268EE7140C1204120C1100A6
:105D1000370C3604350C794328008C462E0060433E
:105D20006044834656432100300C804658467943F0
:105D300040440291844506D98846802149028C4618
:105D4000E044414602913604010C360C00048B46B7
:105D500081191E0C1B041B0C0391190079438C46FE
:105D6000280075436544A8465843050C45447743CD
:105D7000A94203D9802149028C466744290C8C46EC
:105D800039000004000C2D042D186144AB4405912A
:105D90005946049101990F043F0C080C39005143F6
:105DA0004243904602008C46090C8B4662437C437A
:105DB00044445C44A04503D98021490288464244BA
:105DC000210C884661460904090C8C463900594368
:105DD000434370437E430F0CF6182404BE196444F9
:105DE00042448C46B34203D980235B029846404428
:105DF000029B61469846049B370443449B46AB454F
:105E0000AD416B420D0405992D0C8C467F196744FA
:105E1000FD18A8465D462D19A542A441934664424B
:105E2000A446C344DC448F42BF4198459B419345FF
:105E30009241A445A4415B427F421F43360C52422B
:105E40006442BF192243BF18624638184302D20D7C
:105E5000039913436A020A43501E82416146ED0DC5
:105E60002A434E023243D90100D4B3E00126500840
:105E700032400243DE0732435B08224C5444002C7C
:105E800062DD510709D00F201040042805D0101DF5
:105E90009042924152429B180200D90104D58024BD
:105EA0001948E400034054441848844200DD27E7C1
:105EB0005E075B02D2081F0B630516435B0DB2E65B
:105EC000002399460133042700269B4664E60323FA
:105ED000019781460C279B465EE60122012017436D
:105EE000002276E6032303201F43434671E6C046A3
:105EF000FF07000001FCFFFFDC710000FFFF0F80C7
:105F00000DFCFFFFFF030000FFFFFFFEFE07000088
:105F10000023802700933F030026434B83E6019B29
:105F20003200A446584670E6AC466EE680270199DA
:105F30003F0339422DD03B422BD11F433F033F0B40
:105F400000951600384B6EE601252D1B382D00DD1F
:105F500066E61F2D40DC35481C0050441600824088
:105F60008440EE40501E824134431443EB406207AC
:105F700009D00F222240042A05D02200141D944289
:105F8000804140421B181A023ED5012300270026FB
:105F900049E68027019B3F031F433F033F0B0094CB
:105FA000214B40E603005A46283B9A4000260192C6
:105FB0006DE6584600F0F6FB203057E603005246E7
:105FC000283B9A401300002293E6504600F0EAFB7B
:105FD00020307BE6CA4650E71F201E004042041BCB
:105FE000E640202D03D0124C5444A3401A43501EC7
:105FF0008241324307260027164009D00F20002394
:10600000104014000428B9D122005E075B021F0B68
:10601000D2081643002306E680273F031F433F03B1
:106020003F0B1600004BFEE5FF0700001E040000BA
:106030003E040000F8B557464E464546DE460C0085
:106040000903E0B5490A460F5F0031431E03DB0F29
:10605000760A9B46530F3343C84E6500C000E40FD9
:10606000D2006D0DA24681467F0D9C469046B742F8
:1060700000D1B9E05B46012673409B46EE1BA34569
:1060800000D183E0002E63DD002F00D0B1E0634635
:10609000134300D123E1731E002B00D0BAE1861A0E
:1060A0006346B04280410125C91A4042091A0B02D9
:1060B00000D447E149024B0A98464346002B00D1E1
:1060C00089E1404600F06EFB0300083B1F2B00DD1A
:1060D0007CE120223000D21A4146D0409940020093
:1060E0009E400A439D4200DD6AE15D1B6B1C1F2B35
:1060F00000DD94E1202110003500C91A8E40DA40FD
:106100008840DD40711E8E41110007222843002582
:1061100006433240002A09D00F233340042B05D018
:10612000331DB342B641764289191E000B0200D4DA
:106130003DE26A1C914B55056D0D9A4200D119E163
:106140008F4AF6080A40570752023743120B9BE06A
:10615000002E00D0C5E06E1C7605760D012E00DC09
:1061600048E16746861ACB1BB042BF417F42B84622
